:20000000A03A0120551B010039FB021039FB021039FB021039FB021039FB021039FB0210D0
:1C00200039FB021039FB021039FB021039FB021039FB021039FB021011FB021002
:20003C00943A0020C0360020343A0020A037002028290020EC3800209C3A00207C3900209B
:20005C00443A0020043800208C1D000010200000A72000002C2000001E200000543A0020B2
:20007C00582700205C2700206027002064270020682700206C2700207027002074270020FC
:20009C0078270020643A0020343700200C3A00203038002026180000B41700009818000095
:2000BC000A1900007C190000501F00006020000054200000DE3A0020803A0020002A0020AD
:2000DC0098390020E4280020AA3A0020AB3A0020D4370020203A0020F82300207C2700203B
:2000FC00AC1600005A1400002C1C0000E02200200020000078330020D43A0020D03A002007
:20011C008027002084270020C83A00204C1D0000CC390020F8340020803600202C1B000018
:20013C00242A0020B03A0020C03A0020D020000018210000C0260020FC2E0020202B00202D
:20015C00014A031049480310D54903101547031059CF00005D49031081470310A14603102B
:20017C009548031045450310254A031021440310ED47031099490310E148031021490310E7
:20019C005553031089520310CD520310655003108D4E0310A9D2000045E800009909010067
:2001BC000571000059510310ED500310B1C70000CD4B03102952031011530310A9550310E7
:2001DC007555031069530310DD5503103555031001D200002154031075C500000D5603106A
:2001FC004D5D0310A9640310B55B03106D570310E5610310095E0310C55803108560031011
:20021C0071610310B16203109963031055630310FD600310B15E0310B1C10000D55A031097
:20023C00D559031009630310D963031019640310555F0310C56403104D6203107164031056
:20025C008D64031055640310E16403102975031079720310A16B0310F57203109D740310EE
:20027C00797403102D74031061730310FD7303105574031015750310D96C0310FD740310EF
:20029C00899B0000E17403103D75031079700310F9640310CD6803102D710310C174031044
:2002BC00F56E0310B973031029670310056E0310C56F0310E1710310A1770310797D031064
:2002DC003D7E031049750310157E0310357D031099760310997C0310257B031071780310FF
:2002FC00B57D0310ED7C0310857E03102D790310B97A0310917B0310B1790310ED7B031035
:20031C00E97D0310617E0310357A0310D57E0310457C0310A57E0310BD7E0310FDB6000023
:20033C00D9800310E97E031049830310898403108D8103107D820310E58403102B8403104B
:20035C00E10C0100918703106188031045880310F1850310B18803107D880310C98803103B
:20037C001D870310A186031001850310E188031099880310F987031035C60000359C0310B5
:20039C00819D0310E99A0310359B0310C19B0310419A0310353D00001D8C0310618F031009
:2003BC00F1940310919E0310C19E03103D9E0310699E0310259E0310619D03100D9E031028
:2003DC00819B0310ED93031055990310C9970310D9980310FDAD0000959C0310C19D0310E8
:2003FC00A59E03107D9E0310C991031005E60000699C0310DD9D0310E5800000FD9B031050
:20041C00CD990310158E0310019D0310E19C0310219D0310419D0310BD9C0310F59D03107D
:20043C00A19D031055980310E1920310999A0310B99E0310559E0310A92E0100E753010000
:20045C0039A203101950010069A1031075A20310C59E0310B9A10310F9A1031015A1031088
:20047C009DA20310F95C01008B03010075C2000071350100FD5B01008551000031A903102F
:20049C00ADA2031049460000B9A803108591000091B2000039A803106DA9031039BB000071
:2004BC006DAC031099B1031009AF031059B1031001B103109DA9031075F10000B5E3000093
:2004DC000F2D01007DD60000F5750000AD200100F5D30000517C000011AC0000ADB1000088
:2004FC0089B90000F1B9031075BA031081BB0310C939010029F600003114010051BF0000D8
:20051C0051370100A10F0100D54001000510010091390100DD4A0100F5520100D113010039
:20053C00F12B0100953D0100E922010069DB00004556010089FE0000552D010075560100ED
:20055C00652A000029790000B172000015880000E9C60310516D0000A1A300004158010030
:20057C00513B0100CD53010091140100FFCD0000015401002D580100015F01008918010060
:20059C0091EB0000B5E7000001000000000000000000000000000000FFFFFFFFF02A0020F0
:2005BC000400000000000000000000001400000030FD021018000000F8200000640600002E
:2005DC00C82A00200400000000000000000000002400000018FD0210180000007D570100B1
:2005FC00080000005407000018060000C1C8021001BB021091EB0210DDE5021081E0021020
:20061C00B9E5021071E502103100000001000000010000004821000000000000FFFFFFFF0E
:20063C00E82A002004000000000000000000000028000000B8FC0210240000001E00000038
:20065C001800000000000000CC080000780600009BEC021025E2021005EB021025DE02104B
:20067C00FDE10210E1E402102F000000340000002400280000000000C0290020FFFFFFFFE3
:20069C00102B0020040000000000000000000000380000006CFC0210280000000100000004
:2006BC00100000000000000000000000F7F1021000001A0010000000030000009020000037
:2006DC0053150000080000003600000048290020E827002009001D0033350100542600206F
:2006FC000100000000001200FFFFFFFF002B00200400000000000000000000001000000070
:20071C0048FD0210180000000000000000001300FFFFFFFF182B00200400000000000000D8
:20073C000000000054000000A0FB02103C000000000001002D000000A80500004728010015
:20075C0030000000335E0100540700007C070000B51C0100D9DB021059EC0210CDD6021039
:20077C0085DE02104DE5021029E5021030000000000016000000000000000000FF7F0000C0
:20079C0004250020FFFFFFFFF82A002004000000000000000000000058000000DCFB021071
:2007BC003400000039FB021001002F00060000000000000020000000010000001BF8021027
:2007DC0028000000CC080000F407000093EC02106DEB02104DEC021029E00210BDE40210F2
:2007FC0099E402102D00000000000000D02A002004000000000000000000000010000000F3
:20081C0040FC02102C000000000000000000030000000F003C0000000000000000000000F4
:20083C002FF902101000000008000000A81F0000FFFFFFFF082B0020040000000000000030
:20085C00000000001C000000DCFC021024000000E0070000B82A0020040000000000000065
:20087C00000000000C00000000FD0210180000007738010000000000000000000800000071
:20089C0001000000040000000000000000001400000000007C1C000000001900000018005A
:2008BC0024000000355F01000040000000020000A80500000000100055F002100C00000001
:2008DC0005AA000000000000B02A00200400000000000000000000002000000010FC021011
:2008FC0030000000941C0000010000001F5E010087230100000000000000170000020000B9
:20091C003100000000002300000015000100000064070000E02A00200400000000000000B8
:20093C00000000002000000094FC021024000000AC1C0000742A002020000000641E00008D
:20095C00F0320020FC360020902A00208C3A002064240020A43A0020201600003411000006
:20097C00643200207C3400203C3600205C2A002034220020C8200000090803100101031006
:20099C00890903105D0303100105031089060310D1080310210A0310810B0310810A031001
:2009BC00110B0310510B0310D10A031029100310610D0310890E0310050E0310B50F03101B
:2009DC00D10B0310511003103D10031065100310FD0E0310ED0F0310B50C0310650F031028
:2009FC00111003106910031009120310F5120310AD110310291103105D120310B11203105D
:200A1C0019250310552703108D240310F12603100528031089260310CD2303105928031053
:200A3C00ED1F0310251303100D210310911D0310B12703100D2203109925031019260310DE
:200A5C00A91B0310CF2803109528031039290310052903106D29031099160310C91E0310AE
:200A7C007D1903100D230310C92C03101D2C0310292D0310B52B0310F52C03109D290310A1
:200A9C00CD2A0310452B0310472D0310112D0310412D0310752C031029340310C138031024
:200ABC0071360310A12E0310813303106D380310A93A03103D3A0310C53403101138031017
:200ADC00753A03104D2D031009320310E12F031015390310F939031019310310B13703103C
:200AFC00F5350310B13903105D350310C5320310E5360310693903104D370310253D031002
:200B1C00413D0310F53C0310C93A0310A53C03109D3D0310593D031019430310CD3D0310B8
:200B3C00A14303104D400310093F031061420310CD400310C9430310E5430310C93F03105C
:200B5C0011440310FD4303101F440310A942031019420310E1420310C141031075430310C6
:200B7C0049430310494103101B440310AD0B0310A15E0100A55E0100B15E01007B5D0100F3
:200B9C00B55E0100AD5E0100A95E0100BD5E0100B95E0100B43A0020032C000000000000A0
:200BBC0000000000000000000000000003080000000000000000000000016509000000009F
:200BDC0000000000012C000000000000000000000001001E000000000000000003080000A2
:200BFC0000000000000000000001B1019AEB00000000000003080000000000000000000096
:200C1C000001B1019AEB000000000000053800000000000000000000000000000000000043
:200C3C0000000000000000000538000000000000000000000000000000000000000000005B
:200C5C0000000000020800000000000000000000000101000800FFFF682A0020A4290020C7
:200C7C0088290020022C000000000000000000000000000000000000000000000000000059
:200C9C00000000000338000000000000000000008201081014000084000000004E90550097
:200CBC000000000003380000000000000000000000000000140000000000000000000000C9
:200CDC0000000000073800000000000000000000000121030F008000510798E00800C92044
:200CFC0088270020B10100800A000000000000000000000004380000000000000000000091
:200D1C00000188F94E90550000000000FF0710580000FC0100000000000000000000000097
:200D3C00000000000738000000000000000000000001A1000F3333004C0220E80800C920FA
:200D5C00F4260020B10100800A0000000000000000000000043800000000000000000000C5
:200D7C00000000000000000000000000FF0000000000000000000000000000000000000058
:200D9C00000000000128000000000000000000000001003000000000000000000003FF18C3
:200DBC006400000000000000000000007856341200000000BAAB0000000000010000000039
:200DDC006D400021D740002199400021F94000210541002111410021294100214141002195
:200DFC00074C657900F009F861796940490703D50121044A8903116070BD70B502490847B1
:200E1C0080030021081104402D59000000F019F8E1B26C290BD0042801D0062807D10E49D1
:200E3C000978C90703D12178090700D402200B490A780C21114202D0094980220A6003B099
:200E5C00F0BDF0B583B0074908470448017840229143017004480047C80000213301002115
:200E7C0000E200E041160300231B030000F082F800480047577F000000F082F80048004731
:200E9C001B880000094B1A780824A243002800D022431A70004A1047838E00000349087837
:200EBC00000701D40248004770470000800300215F7E0000044A28209047044801214160F5
:200EDC000348044A416010474F42000000500440006004408542000070B51F4D2878C4B22E
:200EFC001E4880472878032834D1032C32D01C488068400DC2071A48014660318030002A32
:200F1C0003D01F240C57458802E01E240C570588002C1FD01348154A416900794143481087
:200F3C0011494969401810494039497F904740054015694288420DDBA8420BDC0C4B99699F
:200F5C0088B20246090C624309045212801880B20843986170BD0000E402002179410000CC
:200F7C00280000218003002100030021CB81000040400440806B0C490007000F487170476E
:200F9C00094A0A4918235079CB56497EC018814201DD084602E00F2800DD0F20D18909094B
:200FBC0009010143D1817047E0020021880000215D40002189400021954000213B410021D7
:200FDC00074C657900F009F861796940490703D50121044A8903116070BD70B502490847CF
:200FFC0080030021081104402D59000000F00AF800480047577F000000F00AF80048004776
:20101C001B880000806B0C490007000F48717047094A0A4918235079CB56497EC01881421E
:20103C0001DD084602E00F2800DD0F20D189090909010143D1817047E002002188000021D4
:20105C000122274B02212548184710B5254880472548406A00280DD124490A2008560028BD
:20107C0009DA401C07D008462038406A2049884200D1804710BDFFF7E3FF10BD00211E4B27
:20109C001C4A0846184701201C49400208601C48FB220178114001701248EC38004710B5AB
:2010BC001849884711492039012807D0020404D50020088514484862012010BD4A6A094BA9
:2010DC00EC3B9A4201D1114A05E007494A6A104B9A42F2D10F4A4A6210BD00000608000001
:2010FC009F060000A1920200080100215401002163920200E7400021B5B4020080E100E06F
:20111C0080030021F7960200DD40002123410021699502001941002100080000000000003A
:20113C0000000804FA000000FFFFFF000C1100000000000000001D11000000000000000045
:20115C002E010F000000FA0000002F0100000000FA000000300100000000FF0000003101AF
:20117C0000000000FF000000320100000000030000003301000000000300000034010000B2
:20119C00000001000000350200000000FFFF0000370200000000FF0000003902000000008A
:2011BC00FF0000003B0200000000FFFF00003D0100000000FF0000003E010000000001005C
:2011DC0000003F010000000001000000400100000000070000004120000000000000000009
:2011FC00610200000000FFFF0000630800000000000000006B080000000000000000730819
:20121C0000000000000000007B0800000000000000008302050000005802000085010000C5
:20123C0000001000000086020000000032000000880200000000320000008A020000000080
:20125C000A0000000097B92EE5725CCB5DCAE473B82F0196BA2D03945FC8E671E7705EC9F6
:20127C000295BB2CE3745ACD0691BF28BE2907905BCCE27559CEE077BC2B05920493BD2A62
:20129C00E17658CF51C6E87FB4230D9A0C9BB522E97E50C7EB7C52C50E99B720B6210F9842
:2012BC0053C4EA7DB2250B9C57C0EE79EF7856C10A9DB324089FB126ED7A54C355C2EC7B22
:2012DC00B027099EA2351B8C47D0FE69FF6846D11A8DA334188FA136FD6A44D345D2FC6B02
:2012FC00A037198E41D6F86FA4331D8A1C8BA532F96E40D7FB6C42D51E89A730A6311F88E2
:20131C0043D4FA6DF3644ADD1681AF38AE3917804BDCF26549DEF067AC3B15821483AD3AC1
:20133C00F16648DF1087A93EF5624CDB4DDAF463A83F1186AA3D13844FD8F661F7604ED9A1
:20135C001285AB3C00CD2A031000452B0310021F44031000FD430310011F44031000FD43E4
:20137C00031003D10B031000FD430310045110031000FD43031001472D031001412D031024
:20139C0001FD43031001FD43031001FD43031000752C031001FD43031001FD43031001FDDB
:2013BC0043031001FD43031002472D031002412D031002FD43031000752C031002FD43030D
:2013DC001002FD43031002FD0E031002FD430310046510031000FD43031003472D031003AB
:2013FC00412D0310031F440310031F44031003FD43031003D10B031003FD43031000752C1F
:20141C00031003FD43031003FD43031004472D031004412D0310041F440310041F440310ED
:20143C00041F440310046510031004FD43031004FD430310043D10031000752C03100001C3
:20145C00363601010001020100010301000104010606080400000C0100340D01000F100469
:20147C000101140100FF1608000020020000220100FF23010001240100FE2501000826023A
:20149C00000028010001290100012A0200002C01000F2E02000030010001310100083202A3
:2014BC0000FF34010007350102FF360100003701000138010001390100FF3A01000F3C0233
:2014DC0000FF3E01010F3F0100014001041F41010001420100FF43010080440800004E0119
:2014FC0000084F01000F50010001510100FF520100005301000054010001580400005C040D
:20151C0000006004000064040000680400006C0400007004000074040000780400007C041F
:20153C000000800100FF81010001820100018301020284010001FF00242B0020E03A002052
:20155C00E13A0020252B0020D83A0020262B0020272B0020055D01005D4300009D550100B9
:20157C001D45010045400100D11701002D180100CDDA0000992201003D48010015400100F8
:20159C0049220100CB5D010055580100A14C0100F93C0100714A0100C5440100F1440100CC
:2015BC002D3D01007540010085F2000091CA0000A7460100AD1B010071130100E15C0100A2
:2015DC00ED5C0100E30701004D520100530801001DD70000A92B01001DEC0000613D01004D
:2015FC00115D0100014F0100FD550100095F01008D37010079890000A14E0100BDED0000F2
:20161C00CD260100FFFFFFFFFFFFFFFF9A1000000000000000000000000000000000000018
:20163C00000000000000000000000000000000000000FAFA14000000000000000000000185
:20165C0000000101000000000000000000000000000000000000000000000000000000006C
:20167C0000000000000000000000000000000000000000000000000000000000000000004E
:20169C0000000000000000780008020030000A00360001000600000000000000000F000026
:2016BC0000000000000000000000000000000300FFFF00000403FFFF0000FFFF0F00E80310
:2016DC000005401F0310000101000000FF3F0F000800050B00000000000000000300010FFD
:2016FC000000000001000000000000000000000000000000000000000000000000000000CD
:20171C0000000000000000000000000000000000AD000002000000000000000000000000FE
:20173C0000000000000000000000000000000000000000000000000000000000000000008D
:20175C0000000000000000000000000000000000000000000000000000000000000000006D
:20177C0000000000000000000000000000000000000000000000000000000000000000004D
:20179C000000000000000000000000000000000000000000000000000101710101010101B5
:2017BC001101010131010101010180010001100161013B001400630173017201620143018D
:2017DC000001130106013D01350004011201000100010001000104010401330133013C0193
:2017FC00440132013600000100016501000135008101000105018201830100016601000188
:20181C000001080109010A010B0103007100300160001100700031022003500480000700CA
:20183C001000610000001400630073007200620043000000130006000000000004001200EB
:20185C00000000000000000004000400370037003C0244000000000000000000650000000F
:20187C003500810000000500000083000000660000000000080009000A000B00030271020A
:20189C00300160021102700201020202020280020002100261023A00410063027302720247
:2018BC006202430200021302380000020002040212020002000200020002040204023700AB
:2018DC0037003C0244020002390000020002650200023502810200020502820283020002BB
:2018FC00660200020002080209020A020B020103710301030103010301030103220302037C
:20191C000103000310030003000300030003000300030003420300032403060300030003FE
:20193C00040312032503230325032303040304030003000300034403000300032303000346
:20195C00650321003503810300030503000300030003000325032303080309030A030B038F
:20197C000304710402046004110470040204020401040204000410046104000414046304C5
:20199C007304720462044304000413040604000400040404120400040004000400045104E1
:2019BC006400000400040004440400040004000400046504000435048104640005040004A7
:2019DC0083040004660400040004080409040A040B0400009953010095570100EDE9000008
:2019FC00B9300100614D010005DC000025FD00001D4C0100814D0100554201008342010098
:201A1C00F5340100313E01007D540100A9150100B9240100750E010005160100DBFD021017
:201A3C00014B010011DC021079EA0000515C0100A145010081590100955901002D530100FB
:201A5C007D670000299F0000000000000000000000000000AD540100F55801004901010023
:201A7C00B9580100515E01004B5E01000959010000000000FF5D0100D5000100DD04010066
:201A9C00DD51010025E700000D5A0100D9B7000065630000DDEF0000614E010000000000B3
:201ABC00A51A0100895101003DD5000000000000000000000000000000000000000000005D
:201ADC000000000000000000000000000000000000000000000000000000000000000000EA
:201AFC000000000000000000000000000000000000000000000000000000000000000000CA
:201B1C0000000000000000000000000000000000000002000000020002000200000032006F
:201B3C0004000100000002000000000000000000050001000000070006000100000003006B
:201B5C0007000800000000000F0001000100FF001000080000000000180008000000000012
:201B7C0022000200000000001404C0A0FE0000001C0880801D0880801E088080FE00000042
:201B9C001404C0A00A0480A0090480A008400080FE0000001C0000801D0000801E000080B9
:201BBC000D0480800C40008006048080070480800F2000800E200080FE0000008F0000002D
:201BDC008F0001008F0002008F000300900000018F00010190000002900000038F0001045B
:201BFC008F0000058F0008048F0000048A000006510000007F0001003F0004003F00020022
:201C1C003F0001007F0002008F0002048F00010238C40D00C80000008100000032000F012C
:201C3C0000C50D00900100004000000096000501952B0D00C80000002200000032000F024F
:201C5C00000000000000000000000000000000000000000000000000000000000000000068
:201C7C007B7374617469632D696E7374616E63652D6E616D657D00C07B656D7074792D6978
:201C9C006E7374616E63652D6E616D657D00C0467B756E6B6E6F776E2D696E7374616E6343
:201CBC00652D6E616D657D00411901001FF9021045F8021059F802106DF8021081F802101F
:201CDC0095F802102DFA000065410100F9330100BD3B01006D4B0100D1590100814F0100A0
:201CFC00E13A0100C95B010065570100E507010005580100655A0100D75B0100555A0100DC
:201D1C00DF5D01002D5E0100275E0100000000000000000000000000000000000000000058
:201D3C000000000000000000835B0100755B0100C003000080070000000F0000001E000060
:201D5C00003C00000078000000F0000000E0010000C003000080070000000F0000001E006B
:201D7C0000003C00000078000000F0000000F0000000000002000000020000000A000000A5
:201D9C00020000000200010000000000000000000000000000000000000000000000000022
:201DBC00000000000E000000F75D01003F5E0100F53E0100FD500100B51E01001951010045
:201DDC00ADF70000DD2D0100395C010019990000A5F50000D90E0100075E0100B1860000D1
:201DFC00DD970000575E01009D2501003DB500005D5E010071E50000540700002C1E000031
:201E1C00155B0100255B0100455B0100355B0100F5410100B54B01002546010032000000AC
:201E3C00001000400600000015000000FF000000000000000D0CFFFFCC38002020000000C1
:201E5C00010300000000000015F9021001E602102DDA021045E7021041D10210C9D3021020
:201E7C00A5DF02102DE4021061EA02103934010000000000FFFFFFFFFFFFFFFF00000000CA
:201E9C00000000000101010100C201000300000000000000CC080000C41E0000215F010025
:201EBC00A9EC0000A502010095410100914B0100F94501002E000000FFFFFFFF00000000AC
:201EDC0000000000000000003A013A01000000000000000000000000B01E0000C02A002098
:201EFC0004000000000000000000000020000000681F000018000000141E0000D82A0020AF
:201F1C0004000000000000000000000014000000341F00001C0000001C0000000000000002
:201F3C0000000000481F000000000000080000000000000000000500BD00B700B100BC0030
:201F5C001C0030003800080038010200180000000000000000000000781F000008000000E7
:201F7C000000000000000000E9C00000B3530100010101000000000000000000060000008C
:201F9C00020000008600000082000000010000000000000000000000000001000000010018
:201FBC00001610160E18151C0212032418580302100258000200000000000000FFFFFFFF5A
:201FDC00000000000200000000000000FFFFFFFF0000000000000000200000004000000087
:201FFC006000000088B2240088130000100000000000000100A6AAACA4A9A9A399B19ABC26
:20201C00B6A8313118191A22311C1E2031313431313117191A21241B1D1F31313331000017
:20203C00030102020000070001000000FF00000000000000000100000C0E020B040B0A072D
:20205C000800110F000120181A18182C34041E00C41D0000CC3A0020E8200000FF00010028
:20207C00C554010007000000EC1D0000482D00203C1E000025DD021031C8021075DF0210A6
:20209C00010001000102030001000102040201010101090200BE040A00BE02080102000369
:2020BC0002000103FFFFFFFFFFFFFFFF35452515020305040004081000040810B4390020FF
:2020DC0052150000FF0000000000000000E004000080000000000000080000000000000012
:2020FC000000000010040810181C10000810182004040810181C0000010203040001050997
:20211C000000000010000000010000006F5E0100255F0100631D0100755E0100B127010011
:10213C00A1FC00001D5F01000A0000009554010085
:20214C002DE9FC47D44C0F460546F80B80F006826078DFF85883B90F80F0AA81B90880F041
:20216C009D81F90A80F00281390B80F0CC80380907D2F80FC0F0288227F080470EF09AFB53
:20218C0022E213F099FE814612F044FE002800F0B480082013F068FD002840F0AE80802088
:2021AC0013F062FD002840F0A88068460BF058FE012803D10098002800F09F8094F83102A7
:2021CC00002840F09A8000250126E8B213F0A0FB48B1837A3BB1867290F9090006FA00F0A1
:2021EC00C0B211F0B3FB6D1C032DEED3032084F8200004F5C47013F04BFE484654F032FB01
:20220C00D34800252A460168056050F8081CD14940F8085C04F15C0012F02CFD40460068A8
:20222C00006B8047A168401A010BA06AC1F1FF3282422CBF08444FF0FF30A06294F82C00E1
:20224C0020B12069A16AB1EBC02F25D912F0F2FD294600B13146081C1BD0BF4840F60901A6
:20226C0001804580417B06F00F0221F00F010A434273017B05F00F0321F00F0143EA010252
:20228C0002732946416013F00FFC418811F4406FFBD084F82C60A56210F0D0FACE482946F9
:2022AC000560022012F0A8FB022011F04DFE11200AF09AF8207818B96068483013F00AFE07
:2022CC00C648007810B90E200AF08EF894F82D0020B184F82D50052011F036FEC04860624E
:2022EC0084F82050B4F9B000B4F9B210884214BF022007200DF0CCF802E0484654F0B2FA13
:20230C0027F008073AE720B1042011F01DFE00206070656811F0FEFA38B12846ED696FF493
:20232C00807100224FF00073A847E06858B140460068006B8047E2686168801AC860000B8C
:20234C00C8600026E660A74904F15C00002212F091FC0221D4F89C0084F8201018B104F1F6
:20236C00DC0013F0BFFD27F4006707E713F0A4FD064612F04FFDD4F894100028894600F0B1
:20238C008480002900F081809749042504F15C00002284F8205012F06DFC304654F062FA2A
:2023AC0004F5C47013F074FD40460068006B8047E0604FF0010884F80180284611F0DCFD83
:2023CC00D9F810006060D9F81000416AC90803D3036A29460022984740460EF033FF6068C2
:2023EC0080F8158060680AF07FF96568D5F808A040F60A02D01F564600F1010C00E01E4639
:20240C00736833B119888A4203D0884218BF8C45F5D100217160727B08F00F0322F00F026D
:20242C0013437373D9F80C201288904224D06046904221D02B8E03B3696305F1300251805A
:20244C0095F83C0001F00F0320F00F00034385F83C3095F83D0008F00F0320F00F0003431D
:20246C0085F83D307260707B01F00F0520F00F0045EA0001717300E0E160504613F014FBA8
:20248C005146404612F0B8FA02E0304654F0EAF927F4806798E0C046E809002006F018FD44
:2024AC00D4F89C0008B927F002078DE08C0100104E4A116841F08001116020B1042011F093
:2024CC0043FD0020607013F0F7FC8246D8F85400016804208847D0B1287DC0B1A068B0B182
:2024EC008146D8F800002E69006B8047A0EB09002861000B2861B04202D28019400828618F
:20250C0040F6C41181422CBFB0F5967F2961504654F0A8F911F0FEF980B1EE6928466FF4E6
:20252C00807100224FF00073B047D4F89400002808BF47F0020701D00EF0BCF92846AD693C
:20254C0000214FF080630A46A84727F000573BE014100440BD160100E439002013F0ACFC40
:20256C00D4F8AC6066B306F1280106C90A234FF0E0450B40154008BF002B21D106F128013A
:20258C0091E8000306F1280595E8060006F1280322EA090221EA080183E8060054F062F9AF
:2025AC00B16879B1B9F1000F08BFB8F1000F09D03069B6F93010B5684B464246A84701E02D
:2025CC0054F050F927F4804727B104F1DC00394613F088FCBDE8FC87000004607A200000AB
:2025EC000DAD00000DAB0000014E0100CC2108402DE9F04F8046C14808300068416EADF1C7
:20260C00440D03A88847BB4C2268106C07682FB9D2F84C0580472268106C0768B648012108
:20262C007E68636801703578D86805F0200A057845B9D2F858240846002190472068006C65
:20264C0007687E683D8912F035FC002702200E9033880F97180955D320684030816F0F7820
:20266C00002F4FD0016809684B6A4F6E996AB1F1FF3F35D0A7B34A1C9A6202681268916239
:20268C000068006890F82B0007F801092068006C006890F82A0007F801092068006C00682F
:2026AC0090F8290007F801092068006C006890F8280038702768386C0268106A0095019063
:2026CC00801B281A80B20290506A916AD7F8C07492F88C2033461530B847071C01D111E0BC
:2026EC00DB272068D0F8B800416C19B9E42009F0B1F904E00F98CB4A1070E4208847002F7C
:20270C0040F08B812068D0F828240BA9642090472068D0F8B800007838B1606800690078B4
:20272C0010F01AF8012840F07581BF4B2168A81C87B21F80D1F82824E9200DF12D019047DC
:20274C009DF82D00012805D13D46C5F3022040F0180005E02D1DADB2C5F3022040F0080067
:20276C0006F8010DB14F06F8015DB7F8040110F0A9F9012840F04C8131782846C1F340114D
:20278C0008F024FCC7F8106108900F9E9DF82C00A7F8F66000280CBFA548A648B346CDF85E
:2027AC0018B007F17C056E80C7F8540107F1F409C9F8180097F88900A7F89A6020F00F002C
:2027CC0040F0030087F8890013F076FB0C909A48B8F1010F0D9021D0B8F1040F1ED0B8F126
:2027EC00000F18D0B8F1050F12D0B8F1030F0CD12168D1F8D40090F85300D1F83C148847B6
:20280C00C07B022818BF4D460AE007F1F40507E08A480D9004E007F1980501E007F17C05D9
:20282C00BAF1000F6CD0A7F8466107F5A270C7F8F80097F8503197F80101DFF8049220F06D
:20284C000F0040F0020087F8010123F00F0040F0070087F8500199F800103C23B3FBF1F2F0
:20286C0023684FF4E178B8FBF1F0801A042211FB02F109B24143C7F84C11D3F8D400D3F80D
:20288C00181490F853008847DA46042808BF4FF0010A4846BAF1000F0ED10078236898FB3C
:2028AC00F0F18AB203F140018B6F1B78002B0CBF883202F5F4720EE00078236898FBF0F1BB
:2028CC00CC318AB203F140018B6F1B78002B0CBFE03202F5CC6292B25043524A8623800028
:2028EC00137000F57A60C7F86401564B0E9320220F9211E014010020372A00203822002010
:20290C0097F80101012161F3030087F8010158462168C7F8F80040314B4A414B5069DB68B4
:20292C00904607F134029A420AD0B7F85C20B0F840309A4204D1B7F85A20C38F9A4217D09F
:20294C00424A3D650123137007F14C02568097F8593023F00F0343F0020387F85930C7F83E
:20296C0054B097F8583066F3030387F858301546C5F808B02A7B66F303022A738A6F1678D3
:20298C00BEB109680E68A6B1317D352911D024488068C06B8047A860287B20F00F0040F051
:2029AC000200287301268DF81060A8680390D8F814001B4989680F9A0E6D0E998DE8060030
:2029CC000D9B294603AAB04721490028088013D50C9853F047FF21684031886F007828B1BF
:2029EC000868006810B1007D352813D0012041F288310EF09DFA10E0164991F90000084EA4
:202A0C00F437401C08700C98F76053F02BFF04E0E12000E01A2009F01DF811B0BDE8F08F51
:202A2C0038220020DF3A002084190020801800204E9055550E7A55554D400000199400006E
:202A4C007428002002004300DC250020382A0020EC290020402A00202DE9F04FC04C06465A
:202A6C00A068D0F80001807AADF1340DC0000BF0B7FF0028089000F0E58113F01DFA0B9064
:202A8C00A068D0F888240AA982209047BDF8280004F1080500283FD14FF000084FF6FF746C
:202AAC00ADF8288047460BE0D2F894238DF82470D42004A99047BDF82800401CADF828002D
:202ACC002A6802F580721068BDF828108088884205DCD2F8942382200AA990471CE0ADF809
:202AEC001440BDF82800ADF81640FF210822ADF8100006A80DF010F92A68384602F58072F2
:202B0C001168897A8142CFDD089BC100401C5F50C0B2C9188C80F3E70020CB4CADF8280012
:202B2C002068D0F800012A6800894FF6FF79A04602F591620CE0BDF82800D8F800702268FD
:202B4C00401CADF82800D7F8000102F591620089BDF82810884240F365812068D0F80001DC
:202B6C00C07A4FF0000A0127554612E02068D0F800012268C0886D1CADB202F591624AE0F2
:202B8C0020682268D0F800016D1CADB202F59162C07AA84208DC002FCDD1BAF1000F32D1EA
:202BAC00F07F0028C7D02EE08DF80250BDF82800ADF8000012686946D02090470028DFD1AC
:202BCC009DF80C0001280AD19DF80B0038B92068D0F81C150DF1030088470028ABD1337D0E
:202BEC009DF80C00002B0CBF0522092257468342C6D10DF1030006F1150112F0ABF800280C
:202C0C00BED04FF0010A2068D0F800012268C088002502F59162A84264DDADF80250BDF8C7
:202C2C002800ADF8000012686946D120904700289CD1BDF80400814598D0ADF81000206811
:202C4C00D0F8882404A9D4209047002840F01B8106A8311D082212F07DF8002886D03088B5
:202C6C007788ADF81400BAF1000FADF8167023D0307B27688DF82400D7F80001877A0020E4
:202C8C0001E0401CC0B2874207DC0B9853F0EAFD0898002800F0FE80FAE0089901EBC001A2
:202CAC008A88914503D0BDF828309342E9D130690860BDF828708F802068D0F8942404A99F
:202CCC00D4209047BAF1000F0CD0B07F9DF80610884207D08DF806002068D0F894246946CA
:202CEC00D1209047226802F580721068C088A8427FF421AF2068D0F8000180884FF0000800
:202D0C00C346AEE02068D0F81C1506AD2846884738B9311D2846082212F01CF8002800F09A
:202D2C009580308877882346ADF81400357BADF8167018682268D0F800018DF8245090F86A
:202D4C000AE0B832584601E0401CC0B2864509DC0B9853F087FD0898002873D070E0C046CB
:202D6C000C0100200899C50001EB050CBCF80430994503D0BDF828709F42E5D1301DBAF142
:202D8C00000F0CBF5B463369CCF80030BDF8283049198B80456806AF7D6003683B601168E4
:202DAC000F783FB10F6D2FB1BDF810103A4690472268B8325D4603E022686D1CADB2B832B2
:202DCC00906CC188A94228DDADF80250BDF82800ADF80000D2F8D0236946D1209047E828F5
:202DEC0003D0BDF804008145E6D1BDF810008DF807B0B77FADF8040023688DF80670D3F88D
:202E0C00942404A9D42090472068D0F894246946D12090472068D0F800018088A84215DDC2
:202E2C00404508D00B9853F01DFD089808B110F03DF900202FE00B9853F014FD089808B11B
:202E4C0010F034F91A2026E0140100202768226808F101001FFA80F8D7F8000102F5807267
:202E6C0080884045DCDDD2F88823ADF81080D42004A9904700283FF445AF0B9853F0F2FCBB
:202E8C00089838B104E00B9853F0ECFC089808B110F00CF919200DB0BDE8F08F2DE9F04F1E
:202EAC004FF0FF084146ADF14C0D0E910F914FF0000910914E46089609960A96AD4C0B960F
:202ECC0004F1300B0C96E0680D96494611919EE0E068710306AA042312F058FF119903AA37
:202EEC00304612F0E9F802AA3046012112F0E4F83046022101AA12F0DFF8069800F0FF00A1
:202F0C0028709DF81900069F6870C7F30140E8709DF80E30AB702878FF2834D0BDF80C70A5
:202F2C00FE2830D04FF6FF70B8422AD107A810F073FBE06871034FF088524FF4005312F02C
:202F4C0025FFB8484FF4005750F8041D3F1FBFB2B1F1FF3F07F1885201D1032FF4D8106875
:202F6C004FF0010A514600F0FF03FF2B18BF8A46491C000A0529F6DB1060079812F06CFABC
:202F8C005744EF8001E01020E8809DF80A00BDF8087028719DF806302F81BDF804206B710D
:202FAC0029786A81E068FF292AD0FE2922D07E291AD07C2912D078290BD0702904D00D994F
:202FCC00491CC9B20D9120E00C99491CC9B20C911BE00B99491CC9B20B9116E00A990F96EC
:202FEC00491CC9B20A9110E009990E96491CC9B209910AE00899B046491CC9B2089104E0BC
:20300C0009F1010710965FFA87F9761CF6B2E578B54200F31F810D9F002F38D10898022854
:20302C0035DA0C98022832DA099802282FDA4D452BD00C98C0B90898A0B90B980A99084393
:20304C0025D011F07DFB854219DCB9F1000F14D094F83200FE2110F02FFFE5780120DDF83F
:20306C00408015E0012013E0089860B9B9F1000F07D111F065FB854201DC062008E00320FB
:20308C0006E00220EBE7022002E0119800E004200028A07000F0C880401E49D0401E00F064
:2030AC00A980401E06D0401E00F09780801E00F093800AE111F044FB05460C2084F83C50F7
:2030CC0015FB00B0817E84F83D10C07E84F83E0007F006FFE2782D1895FBF2F050432D1A7D
:2030EC00E8B284F83200401C90FBF2F15143401A84F831007C2010F0D5FBFF2810D17E2005
:20310C0010F0D0FBFF280BD1FF2010F0CBFBFF2806D1782010F0C6FBFF2808BF94F83100EE
:20312C0084F833000C2110FB01B0808BE0868BE00F9F08F1010090FBF5F184F8328069431C
:20314C00FF2FA0EB0100C1B284F8311014D10E98FF2804D10C200E9111FB00B004E0014640
:20316C00880000EBC100584484F83310808BE086ABE0C046802300203A46D0B2910084F8E0
:20318C00330001EBC2015944898B1729E18640F29C80C91F01AA89B20AF05AFB9DF80F00DA
:2031AC00C0083BD3119F0097BDF81220E18E94F833000323891AC91F01AA89B205F0DEFD6A
:2031CC00002840F08280BDF8101000297DD09DF814000FF045F978E0FEE7119EB54223DD75
:2031EC00304609F0A1F86178E578761CF6B201436170F3E708F1010084F8328090FBF5F1C3
:20320C006943401A84F831005FFA88F009F08CF86070FE215FFA88F010F04EFE119801F0FB
:20322C00EBFC52E00020001111986D1E84F831000C2184F8325010FB01B184F83300898BAC
:20324C00E1867E2110F038FE94F83200FE2110F033FE3AE00C2116FB01B506AA04237103BF
:20326C0012F094FD1199304603AA11F025FF304602AA012111F020FF3046022101AA11F014
:20328C001BFF0699163501F0FF0201F0FF00FF2A09D0FE2A07D07E2A05D07C2A03D0782AA3
:2032AC0018BF702A0AD1119F47B9C1F38542032A04D19622B2EB116F3FF422AE304609F042
:2032CC0033F8002860703FF403AE13B0BDE8F08FCB482DE9F84F0068DFF8C4A20C469046B7
:2032EC00B830C169DFF8BCC291F88320AB499946012A00F08F80C148C14F04687868C068A5
:20330C00022301224FF0E046002503EA080B027016EA09060D7008BFBBF1000F37D14FF404
:20332C00803015EA090700EA080008BF00281AD129464FF4003011EA090700EA080008BF50
:20334C0000280CD14FF4800011EA090100EA080008BF00280FD025710DF088FC0BE025713C
:20336C000FF0A4FF07E005200CF05CFF0EF06EFE257152F03FFE20202F4600EA080017EA15
:20338C00090708BF00282DD011F084FF2AE0AE4991F90000002803DD91F90000401E0870AE
:2033AC00514691F90000002803DD91F90000401E08704FF0807705EA080017EA090708BF73
:2033CC0000280CD0A14991F90000002803DD91F90000401E08706046027012F0F1F8257168
:2033EC000DF044FC9AF9000058B1002E08BFBBF1000F00F023819AF90000002800F31E8157
:20340C000FE193487E4F05703868D0F858242946084612E17A4A01232027002552688E4E15
:20342C00D268DFF840B2137017EA09070D7005EA080108BF002966D12A464FF0E04702EA8B
:20344C00080017EA090708BF002839D18349DFF810C24FF4860012EA090700EA080008BF4B
:20346C00002816D17B4812EA090700EA080008BF00285BD006F12800B480B9F1000F80E8E2
:20348C00000308BFB8F1806F50D1088802284DD10EE006F12800B480B9F1000F80E8000360
:2034AC0008BFB8F5803F41D10888B0F5505F3DD1304680686746436938682146984735E017
:2034CC00614991F900004FF0807702EA080217EA0907A0F10100087008BF002A03D06046FB
:2034EC00037012F06DF85A46B2F90000844201D10DF0BCFB6FF001005146B08091F900009E
:20350C00401E087012E06FF001015A4600681180017859B154480078832802D0534981208C
:20352C000870316911B128468847B480464FAB4602201BEA090300EA080008BF002854D07C
:20354C004B49B1F8460143F2014181422CD0C91C814229D04649C98E43F604028A4223D020
:20356C00B6F9043097F900109C42A1F10101397002D0824223D120E006F1280003C84FF4EA
:20358C0082022C4610400C4008BF002802D10DF06DFB14E052F02EFD11E0C046382A00208C
:2035AC00402A0020392A0020707897F90040401C7070601E38700DF059FB11F065FA2C48B3
:2035CC000F4BA0F8465118686FF00104D0F8B800B480017811B12748017809B911F0F0FFE9
:2035EC009AF90000401E8AF8000097F9001009B9174805709AF90010C9B103E06C38002052
:20360C001401002002224FF0E041104611EA090700EA080208BF002A10D09AF90000002804
:20362C000CDC15480068D0F84C05804706E012480068D0F858242946284690470E48406853
:20364C00C0680570BDE8F88F412A0020422A0020362A002000000C8C38220020C6190020ED
:20366C00F02500203C220020DF3A0020DA3A002080180020DC3A0020140100202DE9F04FA6
:20368C00C64C60692589216AA689806DADF1240D2A46891908310AF0AFFA7619B0B2666971
:2036AC00B16D4919BE4DB1652968D1F8D41091F88370216A0B1808331B780DF11E02137086
:2036CC00DFF82083022F00F1010080B208D141180A7A66694346591C0A70216A401C80B2F9
:2036EC000A180832126802A9001D0A6080B2A081042102A811F04EFC0290034612F026F94D
:20370C00F063184611F080FDA6F84000EA2010F0EDFAB3484FF0020B022F80F800B00BD123
:20372C0068684069007838B14146087810B94878FF2801D00420E0706769E078397C08437F
:20374C0038749DF91E0012F0D7FB87F8460007F17406BE6539899DF91E007B6887F84800AF
:20376C00B7F85C004FF00008401AC01801467860B88987F84780820A18D2020926D310F099
:20378C00070F07D000F00700032812BF081C7868401C17E07968C87800F00702401000F08C
:2037AC00380000EB42004018001D0BE02868D0F80813384688476769786E10B1B7F86800EA
:2037CC0090B178687861B889000916D297F8600010B32868D0F80C13384688476769F86C07
:2037EC00D0B1B7F85000B8B92868D0F8541204F11400884740466061EDE02868D0F8B41402
:20380C0038468847787067697E78B86978651EB1F22010F06BFA67692E68D6F8B810B88920
:20382C000B7808939BB9C0F30131022940F0CA8010F0070F00F0C68000F00700032840F0E2
:20384C00CA8078680078072800F0BC80C3E0DFF898A100F0070CBCF1020F68D16378002BAC
:20386C0065D17B78002B62D161698DF81F800DF11600283112F088F8616928314F6803A853
:20388C0047600E8906810A680260574607F110022B681088401C1080D3F8B8006169436ACB
:2038AC00486E0DF11F020421984704F1140938B92868006C006818B19DF81F1080F868103F
:2038CC00666996F83000022813D12868D9F80030D0F8D4705A4607F1200103F1280011F0CE
:2038EC0009F930B907F116010DF1160012F04CF866693E480078862809D1BAF81200401CF3
:20390C00AAF81200B08900F010000EF0F3FB2968B8310A68107830B1976C27B1606939464A
:20392C0088472968B831D1F89C1148464DE0304A1378002B3ED0C0F3013CBCF1020F39D10B
:20394C007878002847D169689DF81E00896853460870E6786769988A002E07F1280207F10D
:20396C001C0C00F1010098820CBF414608212E68D6F8B80003782BB31E4B4046186000911F
:20398C00CDF804C0D6F8D400117AD6F87863C38C0D20B04730B90EF02FF905E05C380020A1
:2039AC001401002011F076FC2E68D6F8B810087867690890089B2BB1896C19B138468847B4
:2039CC002E686769D6F85812384688474046606111F098FC01E00DF049F909B0BDE8F08F17
:2039EC00DA3A0020E40900209C280020DF3A0020DC3A0020F4290020B0B50446C9480768BB
:203A0C00ADF1480D002F00F08A812078401E122800F28581DFE810F0680154013A0125016F
:203A2C001E010801F600E800C800B700920067005D004C008301340026001C0013007B6C5F
:203A4C00002B00F06C810020A21C0146984766E1F86B002800F06381684621460BF04CF854
:203A6C00F96B5AE1386C002800F059816846002101220CF051F960788DF80000396C4CE19E
:203A8C00F86A002800F04B81684600210E220CF043F9A11C684611F063FDA57BA189002265
:203AAC00ADF80A1005B101228DF80C20F96A35E1B86B002800F033816846002102220CF05A
:203ACC002BF9A5788DF8015060788DF80000B96B23E1786B002800F02281684621460BF090
:203AEC000BF8796B19E1386B08B36846002114220CF012F9A5788DF80150A3680193A289B2
:203B0C00ADF80820A17B8DF80A1060788DF80000E57B8DF80B50237C8DF80C3094F9112056
:203B2C008DF80D2061690491396B684688476068002800F0F48011F01DF9F0E0B86A0028C2
:203B4C0000F0ED806846002124220CF0E5F86078A11C8DF800000DF1020011F001FD04F100
:203B6C000C0103A811F0FCFC257EE08A04F119018DF818500B22ADF816000DF119000AF086
:203B8C003BF8B96AC9E0786A002800F0C8806846002102220CF0C0F8A5788DF80150607866
:203BAC008DF80000796AB8E0386A002800F0B7806846002112220CF0AFF8658862796078C2
:203BCC00ADF8025023798DF80520E11D8DF80000A5798DF804300B220DF107008DF8065035
:203BEC000AF00AF8396A98E0F869002800F097806846002101220CF08FF860788DF8000040
:203C0C00F9698AE0B86910B120460EF09DFAA07820B9A069002800F0828002E0A0690028C8
:203C2C007DD00FF043FA7AE07869002877D06846002113220CF070F86D46A01C016840685D
:203C4C0029600B22686004F10A0102A809F0D4FF796962E03869002861D020460AF04CF9A1
:203C6C005DE0F86800285AD0684600210E220CF053F86078A11C8DF800000DF1020011F0E8
:203C8C006FFCA089ADF80C00F96846E0B868002845D06846002114220CF03EF8A01C016893
:203CAC006D46296040686860A07A0B2204F10B018DF808000DF1090009F09EFFB9682CE0AD
:203CCC00786860B36846002110220CF025F860786588211D8DF800000B22ADF8025001A876
:203CEC0009F08AFF796818E03868C0B16846002119220CF011F8A01C01686D462960406834
:203D0C006860A07A02A90FF094FD0B220DF10E0004F10B0109F070FF39686846884712B0F8
:203D2C00B0BDC046982600202DE9F04F064692F808B0307D09AF8946ADF11C0D0493352854
:203D4C00039208D011464D6806F1700045600C8904810A680260DFF8E48239F07F0006D128
:203D6C00D8F8000000F1D4021168C98C05E0D8F800004FF6FF7100F1D4020591F18A8909FE
:203D8C0034BF002108213176F18AC90834BF102180217176F18A49093ABF116891F834102F
:203DAC000021B176F18A4B082CBF20240024090928BF44F010047568317D4FF0000A09F080
:203DCC007F096D1E02290EDB0D2908DA0C2904BF44F408544FF0020A44F0030404E00D296C
:203DEC000CBF022101210C43116891F8381001292BD196F88C1009B144F00804200904D3C4
:203E0C00002908BFDF2000F01581D8F800C0210960461AD3DCF8BC54049A039906F1240398
:203E2C003046A847051C07D0D8F804007570816DF3208847E8B2FEE0F08AC00828BF44F0BB
:203E4C0010047568404600686D1E336DBBB9B36DABB9D0F8D41091F85120012A03D13189F5
:203E6C00B1F5EE7F06DA210904D2022A0BD144F4005401E044F480544FF0010A03E044F45D
:203E8C0008544FF0020AD0F8AC100B786BB9D0F8B8100B784BB196F86B10042905D124F411
:203EAC0080544FF0020A44F4005444EA8934B9F1020FA4B20BD0B9F1030F16D1D0F8D41025
:203ECC00ED1F2846443111F05FFD6D1E0DE0D0F8D400408D001205F80109D8F80000D0F8F8
:203EEC00D40090F82A0005F80109BAF1020F0AD0B9F1000F13D0BBF1000F07D0049905982B
:203F0C00814203D109E0307D0C2806D00599081205F8010905F8011901E044F0400444EA01
:203F2C008B24BBF1020FA4B209D0BBF1030F0ED10399ED1F284611F027FD6D1E07E00399F4
:203F4C000888001205F80109087805F80109BBF1000F05D00498011205F8011905F80109C8
:203F6C00387808BB377D0D2F16D040460068D0F8D4105FB9376D1FB9087D421C0A7510E06C
:203F8C0091F83900421C81F839200AE091F82200421C81F8222004E0D8F80400D0F8A8004D
:203FAC00804705F8010901E044F48074201205F801092C70D8F8007070683389B837401B27
:203FCC007560C1B258183081F86990F8380001282FD120092DD3B06D00B130623868007881
:203FEC0010B1307D0D2824D1706A10F1150406D1D7F89404804740460768706AB837816A7B
:20400C004A1C8262306A3289B162441B0092121B019090B20290706A96F88C20D7F8084430
:20402C002B461530A04700281CBF7070051C7FF401AF0020707007B0BDE8F08F14010020A0
:20404C002DE9FE4F0090B74F01913868DFF8DCA2DFF8DC82B74D02924030D0F89410DFF854
:20406C00D89291F88320B0499B46012A00F084807A68D26801230024137056460C7003683B
:20408C0034701E6816B9D0F80C05804702984FF0E24616EA0B0604EA000008BF00284ED16D
:2040AC000299A24608201AEA0B0600EA010008BF00283DD0464696F90000401E3070B5F887
:2040CC00D60042F20146864202D0311D81420DD1484600680199826C0098904730B10088A4
:2040EC00B5F8D61042F6014282420BD1B5F86600B0F5105F21D1A96F48460C3001600FF0AB
:20410C0095FC2EE0361D8E4214BFE1201C2007F0A1FC98F9000028B198F90000002800F317
:20412C00FB80EAE03868D0F8582421462046EEE0464696F90000401E30701D200FE04646DE
:20414C0096F900003D68401E3070286C006840680078800902D210F07FFB02E0E92007F04C
:20416C0079FC98F90000002800F0CC8098F90000002800F3D180C0E07A68D2680123137069
:20418C0000240C7001680E6816B9D0F80C058047484600680199826C009890476749029AEC
:2041AC00DFF89C910B8814EA0B064FF0020606EA020108BF002931D121464FF0E246114002
:2041CC0016EA0B0608BF002919D14FF486012026114016EA0B0608BF00290AD1002874D03F
:2041EC00008840F6030181426FD01D2007F032FC6BE0019900985B46FFF76AF865E0464646
:20420C0096F900004D46401E30702878862802D010F022FB59E00FF049F856E0464696F96B
:20422C000010DFF820C15246491E317043F20841994214700AD0B5F87E2001F1020E9E4523
:20424C0004D0914202D07146914212D178B1008843F6030181420AD007F086F896F90000DD
:20426C0000284FD096F90000002855DC45E0B5F87E20B5F8F61043F6040088422ED0904209
:20428C002CD098422AD0B5F84E20904226D0B1F5505F05D0080B16D31D2007F0DBFB12E03D
:2042AC00294800684E4600F5C070CCF814003078862802D00FF0BAFB05E001990098029AF9
:2042CC005B460EF023FA11F07BF9464696F90000C0B196F9000000281EDC0EE01B4800789B
:2042EC00022816D0032814D007F03EF896F9000040B196F9000000280EDC3868D0F84C058C
:20430C00804709E03868D0F8582420460146904702E0204607F09EFB7868C0680470BDE880
:20432C00FE8FC04614010020382A0020372A0020402A002080180020402200201A1900208F
:20434C00DF3A002038220020280100219D2800202DE9F0470646AF4DAF4C28684030D0F817
:20436C009410277891F8838027B1D0F80C0580472868403001680B682BB9D0F80C0580478A
:20438C002868006C0368A246A44C0127667003F1700093F878608AF80070BEB1A049022E93
:2043AC000CD091F90120032E06D10E4606F1100110F0F0F850B906E0104608E00E46B11DCF
:2043CC0010F0E8F810B996F9010000E07E2011F0DFF86078012840F2B280DFF84892924951
:2043EC00801E56D0401E3ED0401E00F0C880401E20D0401E40F0BE802868006C006890F8E5
:20440C006D20628190F86E00002806BFE770381CE0706A6852680978127811FB02F1484321
:20442C0081004846C16690F8701021F00F0141F003015AE0B8F1010F40F0B3802968403184
:20444C000A6812680020D28A6071D20939BFD1F8941091F82510D1F8941091F84E10A170B4
:20446C0011F072FB9DE00026B8F1010F66710DD12968D1F8D40090F85300D1F83C148847C0
:20448C00C07B022802D1304609F000F80EF06EFF87E066482F680668D7F8D40090F883003E
:2044AC00012825D0884698F800008700F06B8047D8F804103C23401AB0FBF7F1B1FBF3F20A
:2044CC005A43891A227812FB03F0401A3C301FFA80F8F06B804707FB08014846C16690F835
:2044EC00701021F00F0141F0020180F8701058E0884698F800008700F06B8047D8F80410C0
:20450C003C23401AB0FBF7F1B1FBF3F25A43891A227812FB03F0401A3C301FFA80F8F06B26
:20452C00804707FB08014846C0F8FC1090F8001121F00F0141F0020180F8001131E00021A2
:20454C002F68617107F140010A681268D28AD20939BFD1F8941091F82520D1F8941091F861
:20456C004E20A270B0B9CF78A7B1022AC4BF0220A0700FE02868D0F84C05804711E02868E6
:20458C00006C006890F86910617190F86A00A0700027A77101F06AF82868006C0068002848
:2045AC0036D02348007898B92868403001680F682FB9D0F80C0580472868006C07687A6800
:2045CC006178107800F0200020719078E07100E06178032903D0022918BF062918D111F0A1
:2045EC006BFC617802290CD01249097811B91249097831B102218AF8001052F033F9BDE83C
:20460C00F08783218AF8001052F02CF90BF048FABDE8F08714010020DF3A00209C280020CF
:20462C00301A0020801800207428002040220020F6340020DA3A0020DC3A00202DE9F04F05
:20464C00B24C2168ADF1240DF4310A68059092F8440082281ABF92F84400401C002082F8B7
:20466C004400086890F8441000EBE10090F82C104A1080F82C2048080AD22168F4310A68A4
:20468C0092F84400401C82F84400C0B28128E8DB2268F432116844310878812880F22D8161
:2046AC00D2F83C23E12090474FF6FF770220ADF8087025688DF81000F43528688778CFB991
:2046CC0011F090FA4FF47A71B1FBF0F0904B914900220AF0CBF9002800F015812068D0F8F6
:2046EC00F4001A21417005982A2707702668D6F8401307E1022F00F0FC80052F22D0042FDC
:20470C0020D0012F19BF07228321082280210023009349300190D5F884524FF6FF7310468D
:20472C0002AAA847DB2808D0E52806D0F32804D0DF2818BFE82840F0E6802168D1F8F4104B
:20474C004870D0E7D5F8402100F149010C209047071C00F0D8802068D0F8F42092F8436076
:20476C00002106B1012192F84260002006B1012092F8412040EA4100012A01B24FF000009C
:20478C0008BF012040EA410910200AF029F9624D0646287930700AF023F970604FF00008FC
:2047AC0086F808803278C6F80C80706805F58C75294609F021FA5FEA060A00F088802068C4
:2047CC00D0F8F40035787A68CDF81C9000F149018378069190F842B090F8439071680893FB
:2047EC000723561E06F801393889401C3881F82206F801292A4686F80080761B304609F051
:20480C00FBF9089B761EC5F3012040F0900006F80109042B06F8015921D0B9F1000F0EBFC2
:20482C00404606F801990120BBF1000F03D0401C06F801B980B20799401C1E2506F8011902
:20484C0080B2831C06F8015999B206F80109C1F3012040F0880006F8010906F801193F20C4
:20486C0006F8010986F8008078680C25801BC0B2388106997E600B22A7F8168007F18400F4
:20488C003D7509F0B9F92068032102AA4FF6FF73D0F87453CDF800803846A847061C08D164
:2048AC00787E256840F020007876D5F8781238468847DAF80400374608B10EF0F7FBDAF8B9
:2048CC000C0008B10EF0F2FB50460EF0EFFBDB2F07D0E52F05D0F32F03D0DF2F18BFE82FE3
:2048EC0011D12068D0F8F400477005982A210170FCE60598D5F8741304E005982A21017066
:20490C00D2F84C12884709B0BDE8F08F140100204C2A0020DDA60000301A00202DE9F84FA2
:20492C000AF018F8B24DB34C4FF000084FF0010A4FF0020B48E085F80080E36910F0BAF962
:20494C0020B9206A20F00200206203E0184611F035FC206A010927D3606911F02BFC071C3F
:20496C0015D0616A69B1607858B1401E02D0401E0AD103E0B86810F091FB616AB8688847CE
:20498C0002E0B86810F08AFB38460EF08FFB606911F00CFC20B9E06911F010FC206A03E010
:2049AC00206A20F008002062C1080DD320F004002062206911F0FAFB30B9206A40F0100056
:2049CC002062E06911F0FAFBE0694FF0FF3153F095F910F0DBFCE7882689A4F80680A28840
:2049EC00A4F80880216AA4F80480114347EA010246EA0201216210F0C7FE206A010A24BF61
:204A0C0020F08000206220780CF0C8FDA16A002834D0074649B1A078401E04D0401E04D124
:204A2C00384688472AE03846884738460CF059FD071C23D00C2009F0D3FF061C1BD010F0DC
:204A4C00A5FCB7603B7881465BB92069314611F0A9FB206A40F010002062E06911F0AEFB20
:204A6C0005E030460EF022FB38460EF01FFB484610F08AFE02E038460EF018FB206A4109C3
:204A8C002CD3206911F092FBD8B911F0C3F8C0B910F07CFC0646206911F08CFB071C0DD059
:204AAC00B8684068A061B968486849880AF06CFCB8680EF0FBFA38460EF0F8FA304610F026
:204ACC0063FE206911F072FB20B9E06911F076FB206A03E0206A20F0100020628108FFF4C9
:204AEC0039AF66E09DF800006B78AE686F68A870D81C5FFA80F94946304610F0C1FD9DF8E1
:204B0C000010814205D13FB1484631464246B84702E0304610F02EF985F8008049E0AF68A8
:204B2C00E8789DF80010C019C170E878401CC3B2EB7010F0BFF86978C6B2C91AB1420CDB01
:204B4C00D8193146C01C0FF069F8E87869788019C0B2E870814222D02BE0DB1989B2DB1C1B
:204B6C0018460FF05BF86878E87018E09DF8000085F803809DF800706870F81C10F048F883
:204B8C000028A8603FF4D7AE6978017085F800A00FE09DF80000A9688870687808B905205F
:204BAC0006E0042004E09DF80000FE2801D10320287010F07FF800283FF4BFAE684651462F
:204BCC000FF02CF828780028EDD0401E08D0401EDFD0401ECAD0401EA1D0401E82D0E8E798
:204BEC009DF80000A968487085F800B0E1E7C046502A0020C41200202DE9F04FAD4E4FF031
:204C0C00000A8146ADF1140D57467069CDF808A0CDF80CA010B1804700B90B27F078002F9A
:204C2C0040F0978096F8314096F832700146B9F1000FA1F101011FFA81F818BF0121554638
:204C4C004FF0F80B86F83F1022E0AF421ED0F06869036A46042311F099F8009911F4403F0E
:204C6C001CBF0AF101005FFA80FA01F0FF017C2918BF782909D1284606215A4610F02AFA3D
:204C8C000C2015FB006080F848B0F0786D1CEDB2A842DADC401E50455BD0B8F1000F06F1FF
:204CAC00300500F0CF8003984FF4005B019096F83F30F06813B9012186F83F106A46610386
:204CCC00042311F063F8B9F1000F05D00099F07811F4403F40F09B80009800F0FF007028C8
:204CEC0003D0204670210FF0E7F8F06879036A46042311F04BF8009800F0FF00FE2803D091
:204D0C003846FE210FF0D8F838460621FE2210F0E1F9B800FE2300EBC700FF2186F83C70A7
:204D2C00A200A6F840B0401986F83D4000F1180A8AF80030019B86F83E1002EBC4004019AC
:204D4C00A6F84430808BA6F8420000F055FB102801D10020AAE0B9F1000F0CBF1021494612
:204D6C00B9F1000F07D0B6F84000C0F50050814207DC01200390B6F84000C0F50050814294
:204D8C0001DD782100E07C2138460FF095F806F0A7F896F83F300446A8EB04000621FC2251
:204DAC001FFA80F8181B86F83F00384610F092F9FC208AF80000029A96F83210F0780919C9
:204DCC0096F83E400C27891891FBF0F24243891AC9B286F83210491C91FBF0F24243891A1B
:204DEC0086F8311014FB0751898B102905D1611C91FBF0F24243891ACCB20198B9F1000F7B
:204E0C0096F83270029019D00398B8B11AE096F83F30641C94FBF0F1A8F101024143A6F832
:204E2C0040B01FFA82F8581E641A029986F83F00E4B286F83D40481C80B20290B8F1000F26
:204E4C007FF435AF7C200EF02DFD0446FF2C1CD17E200EF027FD0446FF2C16D196F83140AE
:204E6C000C2014FB0050807DFF280AD0F27896F832008018401E90FBF2F15143401AC4B2AB
:204E8C0003E020467E210FF017F80C2086F8334014FB0050808BF08696F83200FE210FF035
:204EAC000BF8B6F84000C0F5005000B205B0BDE8F08FC046802300202DE9F04F134658781E
:204ECC00ADF11C0D1F7804909878FB2F059080F2328104984FF0010900F01E000A2880F249
:204EEC0026810498A14900F01F0051F82060002E069600F01C81049ADD1CADF80470059EF7
:204F0C008DF8002028468DF8016032F07F04029000F00981002F4FF0040A00F0F78001787F
:204F2C001B798DF8031021F007048DF80230083C00F0E580DFF83882083C4ED0083C07D0BF
:204F4C00083C40F0D980032F08BF4FF0000ADDE0032F40F0DB80841C02944446257DADF8B5
:204F6C0004900027012D30D1257F95422AD1627FB24227D1E27F514011F0070F22D1A17FDC
:204F8C0099421DD18078A8B1401E12D0401E032818D9001F02D0401E14D008E0607D1B1A04
:204FAC00B3F1FF3F06D007200DF026F8A2E008270EE0B9466846494608F06CFE074604E07D
:204FCC00032705E007200DF017F8002F00F092803A466846202100278AE0042FC0F2968057
:204FEC008346A81C10F052FE4446054620783F1FFEB2002701282BD19DF80010227A9142ED
:20500C0023D19DF80110627A91421ED19DF80210A27A914219DB9DF803C0E37A9C4512D149
:20502C00A3899D420DD1914206D0A1788E420DD0A1888E4205D109E002202070A1788E42B9
:20504C0004D0574602E0022700E00327216927B99DF80230042808D020E008460EF026F81F
:20506C00504620709DF80230A372ABB969460EC904F1080080E80E00284609F0B1FC206130
:20508C00002804BF2078062708D000206070A670A580A581207005E007B90327042823D0AD
:2050AC0002281DD02169A0789DF80220884612FB00F080B2324640180BF1040108F09CFD15
:2050CC009DF80200A072A088801B86B2A68036B9CDF80880ADF804500627D14602E0207807
:2050EC00042801D04E46267004F1080018213A460FF066FABA4609E04FF0050A06E07F1EAE
:20510C00401CADF804704FF0060A0290D146B9F1060F0CD10699684688478146029830B11C
:20512C000DF0C4FF03E00699684688478146B9F1000F02D10FE04FF004090498059F8DF851
:20514C000C90002103228DF80D0003AB8DF80E70602003F069FD07490888401C0880002061
:20516C0002210AF013FE07B0BDE8F08F4C28002084380020B82400202DE9FE4F8B4605462F
:20518C0010F09AFE944C012D029000F0E08020460068D0F838038047002800F0D3800CF07C
:2051AC00FFFC002800F0CE8021464968DFF840A28969DAF808000F783C30002F40F0C28051
:2051CC00864C0068257880476168E268AF00401AB0FBF7F6A06890460027B946114646458B
:2051EC004B4673EB090301DA884206D839464A4686428A4140DA024600E039461046EB176A
:20520C002A46801BB94110F047FA0646794800680F46C18A00694018643080464FF00001CC
:20522C00B6EB080677EB09077042B94124DA10F0D9FC02464B46394630460BF095FA0F4615
:20524C0006464FF000017042B94115DA10F09EF80546206910F008FC10B1206910F018FE4D
:20526C00284610F091FA2069314610F00DFE206910F00CFE002000E0012059490870884682
:20528C0098F8000000285DD153480068D0F894000078002739460BF0E7FD00B10127381C93
:2052AC004DD14D480068D0F8D4004B4E90F88370706880690078002841D1DAF80800494C35
:2052CC00436C606902216A4698479DF80000002835D0BBF1010F4FF0010921D0424EDAF87E
:2052EC000820606996F9001011F1020F06D0926B96F900109047DAF8082060693B4D95F9DD
:20530C00001011F1020F06D0926B95F900109047DAF8082060696FF001012970317002E0D6
:20532C00DAF8082060692C494968896981F80090D1698847012F04BF00208AF800000020BF
:20534C0088F80000029851F08DFABDE8FE8F2068D0F89400007801210BF086FD029851F056
:20536C0081FA606880690078012819D10FF092FD60B1606880690178012911D10021BBF1C8
:20538C00010F01700CD010F03FF909E010F094FD6168896902220A7051F064FA0AF000FB05
:2053AC000FF078FDB0B960680C30C1680978022909D101680F7837B12068D0F84C05804711
:2053CC00241D20680C3001680F781FB9C16808780228FCD0BDE8FE8F140100207428002032
:2053EC00DD3A0020DC250020342A0020352A002038220020F02500202DE9F04F994E96F8D3
:20540C003D0096F83F10F37896F83C800027ADF12C0D0918491E91FBF3F296F83D407770C8
:20542C005A43891AC9B20891810001EBC0018919B1F84C0096F83C10ADF81C00880000EB39
:20544C00C1008019B0F84C50CDF8248006A80EF0E3F870780A97A04500F0A180B946CB4623
:20546C00BBF1010F00F09080BDF81C10162966DD002840F09580BDF81C0001AAC01F81B206
:20548C00ADF81C10204608F0E3F9BDF81210BDF81C30884608F1070008F1100287B29A422F
:2054AC0046D89DF80E00962842D19DF80F00420839D2800837D3BDF81C0000230093A0EBB1
:2054CC0008001FFA80FA9DF80D20BDF81C002346401A80B20EF0BCFBF8B9E819B0F5005F32
:2054EC0015DCF068C5F188520AEB443A3B46D21B514602F5005210F049FCED1909F10109B7
:20550C00ADB2B5F5005F08BF4FF0010B0BE0BDF81C004FF0010BC01D2EE0BDF81C00401EE4
:20552C00ADF81C0004E0BDF81C00A0EB080023E0204607A90BF034FC01281FD030E0F27880
:20554C00B9F1000F07D0484BBDF81C70A10001EBC401C9188F830899A14220D04249641C17
:20556C0094FBF2F05043241AE4B2A00000EBC4004018808B4FF00009ADF81C000999707802
:20558C00A1427FF46DAF0AE0B9F1000F07D0364ABDF81C70A10001EBC40189188F8320B17C
:2055AC0006980FF059FF102059E0DDF824804FF6F0704FF40051C5EA0040C5EA0141E1FA14
:2055CC0040F01FFAA0F283B2102102F1885240460DF058F971780843707006980FF03CFFF1
:2055EC00A0450FD1F278204F1019401E90FBF2F15143401AC4B2A00000EBC400C019808B75
:20560C00ADF81C00184FBDF81C00A6F840504FEA8801A6F8440001EBC80186F83E40C91920
:20562C008D83B6F9422096F83D10012340460FF09BF896F83E10B6F94420022340460FF08D
:20564C0093F8BDF81C001628DCBF01200A90B5F5005F03DB0A9840F002000A900A980BB09C
:20566C00BDE8F08F80230020B02300202DE9F84F8C4E4FF000088C4C30688DF80080D0F889
:20568C00D400A57890F883B010F099FB4FF0010A4FF6FF710AFA05F2891801403068618168
:2056AC00D0F8B800824D077847B3826B32B342F21A00694690477D4867790378C3B1BFB964
:2056CC009DF80030A3B13068D0F8B800C06D78B180472978071C0AD07068406863890078EE
:2056EC00083010FB01F0B7FBF0F15818608167799DF80010608907FB010060816078002834
:20570C0040F0B3806B483768016807F1D4000268DFF8A49192F88320012A33D0D0F8880171
:20572C008047A1782A78002800F09B803368A9F8E280D3F8D43093F8314089F8E44093F80F
:20574C00243089F8E53099F8E63043F0200389F8E63099F8E6305043800023F01F0343F09D
:20576C00020389F8E63099F8E630C9F8F00068F3871389F8E63089F8E78089F8E81089F8BB
:20578C00E98074E0C86B804704460BF0C9F807462878810007FB01434C4604F1A4021078D7
:2057AC004FF0020C6CF3030010707068C4F8A030406894F80021007868F30302083080B2B3
:2057CC0001FB003194F8883084F80021604660F3030384F888303068C4F88410D430016827
:2057EC0091F8831001293CD1D0F888018047C0B36868D4F88410884233D294F8A400042369
:20580C0068F3030084F8A4002A787568C4F8A08012FB03F001B2686894F88830007808302C
:20582C0080B2414323F00F0040F0030084F888004FF4FA55C4F8841094F88C00A4F89A809D
:20584C0040F0080084F88C0094F88C00C4F894506AF3041084F88C0007FB02F00EF084FE57
:20586C0005E01C2006F0F6F801E002F065FEBBF1020F14D13068006C006880B10F481149F1
:20588C00007848B90E48007830B98322084602700AF006F9BDE8F88F022208460270BDE8B9
:2058AC00F88FC046140100209C280020F6340020742800204022002080180020DA3A0020C2
:2058CC00DC3A0020DF3A00202DE9F0430546854A69780026ADF11C0D084631280FDC312831
:2058EC0000F0B480002800F0F680401E00F0EC80401E00F0E5802E3800F0C180DEE07B4C61
:20590C00323800F08C80401E41D0401E012817D9801E40F0D380A88802280ED114462068F3
:20592C00002808BF182109D0A86810F0AFF92168884710F080F8014600E027213620BAE073
:20594C0020680F4600B3A86802A90FF06EFB342F034608BF9B1C13F8012B352F03D1A988BE
:20596C00901D884208D0342F04D1A98802F10800884201D0272108E0246802A803C8A047B5
:20598C0010F059F8014600E01821384693E0A888082836D114461034206880B3A86802A9DE
:2059AC000FF043FB024610F071F995788146F82DC8BFF825A81C5FFA80F8404609F010F833
:2059CC00071C1AD0B81C0090246802AB93E803004A462B46A047041C07D13C70414633202D
:2059EC003A467D7010F09AF902E010F024F8044638460DF05BFB2CB970E01A2402E01824F1
:205A0C0000E0272406A8314602220AF085F98DF81840332006AA022110F080F95EE0A888A4
:205A2C00314605280BD1241D206840B1A86804A90FF0FBFA226804A803C89047014602A8A6
:205A4C000DF0DAFE3220042102AAE5E7A888052812D114460C342068002808BF18210CD010
:205A6C00A86802A90FF0E1FA226802A803C890470FF0E1FF014600E0272131201BE0A888E5
:205A8C00092816D11446241D2068002808BF182110D0A86802A90FF0C8FA0FF08BFE246827
:205AAC00024602A803C83346A0470FF0C4FF014600E0272130200FF07BFF0FE026260DE09B
:205ACC00094A02200521A7E702A8432110F0D8F802AA01209FE701200DF062FD304607B0B6
:205AEC00BDE8F083540F00203C2000006C0F00202DE9F04F694A794E1068ADF11C0D01A950
:205B0C000190096806F1100004462160516801AA01911268011D0A60614908220EF0EAFFF2
:205B2C0028B960490A6820460260496841605E485F4F4767604BC3675E4D85675B490167C9
:205B4C005F4FC0F884705F4BC0F888300024C0F89840C0F89C40594AC0F8944000F18005D8
:205B6C002A605A4F5A4B584AC0F89070016FC0F88C20594FC0F8A030564AAF62C0F8A420B6
:205B8C0009B12046884709F08BFD5548554FF0604FF0020A87F801A04FF0010B87F802B011
:205BAC00514B7B625148B8620CF02AF90423514A4F4913703878087048704F4F4F49137513
:205BCC00642207F10C000CF011FFA146DFF83081B8606F688DF8089077B102A841460090BF
:205BEC0004AB891D0A6889881A6004AA998092E803005B464A46B8472A6847464AB1B91DE3
:205C0C0004A80B688988036004AD818095E80300904739680DF1090001603D790571394826
:205C2C000068400805D341208021062202AB02F0FBFF354D05F1140005F1080107F030F962
:205C4C006860484610F034F8AF1E804607F8029F204687F801A010F0ADF8014668684246B9
:205C6C00C9B20DF0F7FC641C022CEFDB274905F1200032220CF0BAFE70684FF0FF3152F01E
:205C8C003DF80028F8D030780BF088FC041CF3D0FDF7B2FE20460FF06DF8EDE7C84F005020
:205CAC00C0200000F0120050E00E002059D10000A921010019F40000D5DD0000CDEE000029
:205CCC002DFB000001CE0000EDFF0000F51901004D5401006D040100D90A01008C260020FC
:205CEC00BC240020C4120020312F01006D5901004828002084380020282700203526010043
:205D0C003C200000882A00209825002021E300002DE9F04F7A4CA068416EADF12C0D02A815
:205D2C008847DFF8E0A1DFF8E0B19AF9000038B1594691F90000002818BF002040F0DC8078
:205D4C0010F0BAF8DFF8C4910A9099F80000800806D27D20002105F039F90025079001E04C
:205D6C000025079502958DF80C50059503208DF81800DFF89C81C8F87C51A8F8765198F80C
:205D8C008F7198F88011634B012665F3030166F3000788F8801198F8801188F88F7166F33A
:205DAC00C71188F8801198F88F1166F3410188F88F1198F88F1165F3820188F88F1198F848
:205DCC008F1165F3C30188F88F1198F88F1165F3041188F88F1198F88F1160F3461188F8C4
:205DEC008F111868D0F8282408F5C871F4209047494807789FB94846A768007880090FD35A
:205E0C00F86B8047C8F87C0198F8801121F00F0141F0020188F880118DF80C600290A768F6
:205E2C003F4A3E484FF080738DE80C003F6D3D4B006808F5BA79494602AAB8470028608086
:205E4C0006D5022041F288310BF072F82E464FE0594691F90000344F401C087097F9000035
:205E6C00401C38709AF90000C4F80C902946401C8AF8000002200BF05BF8264F26483968E6
:205E8C00057001F1AC021068077807B18025B4F84C0017684FF67F7303401D432843A4F835
:205EAC004C0098F88C21387860F3C71288F88C21D1F8D400C28CA4F85A20428D00F144033C
:205ECC00A4F858201A6804F14F052A6058686860D1F8D400C18CA8F8A611418D00F144077A
:205EEC00A8F8A4113A6808F5CE742260786860600A9850F0B7FC30460BB0BDE8F08FC0464E
:205F0C0038220020422A0020412A0020DB3A00208018002014010020392A0020F02500200A
:205F2C0020004300DD320000402A00202DE9F04F814DA868416EADF12C0D02A88847A84639
:205F4C007E4C7F4DA178606902290FD170B1002006F0A0FED8F80800416860698847281D7F
:205F6C000068806901210170002060614FF0010A002684F802A00028059630D10AF064FCA4
:205F8C00D8B10AF061FC012817D00AF05DFC052813D00AF059FC0C280FD00AF055FC0D28C0
:205FAC000BD00AF051FC0B2807D00AF04DFC0E2803D02868D0F84C058047D8F8080000F124
:205FCC00200130B92868D0F84C058047D8F808102031096804F1200088475148E0630EF0D3
:205FEC002FFD2968D1F8D40090F85300D1F83C14884707462868D0F8D40090F942000BF039
:20600C00B1F9B0F1FF3F05D0010828BF4FF6FF704449088038897968DFF80C913B6832462C
:20602C004FF47A7BA9F81661401EC9F81821414303EB5100B0FBFBF0A9F8340199F82101CA
:20604C006AF3030089F8210199F820016AF3C71089F820012868D0F8C4038047F8B9B889D1
:20606C0032496F68BBFBF0F0C0B208707968BBFBF0F008702868D0F8D40090F85300022822
:20608C0006D00CF00BFF032809D105215C2001E00221A820264A117069680968087067692A
:2060AC00D8F80860A168DFF88CB03FB3002006F0F1FD2A68D8F808106069D2F8D4206378AE
:2060CC0092F853200F4693420AD0496888476868806980F800A0D8F80800A16806680EE025
:2060EC00022100228DE806003F6D09F58A76002302AA3146B847C8F80C6008E0366809F535
:20610C008A7904F1200358464A46B04760612868D0F8D40090F853000BB06070BDE8F08FBC
:20612C0054F10080AE19002080180020742800209C280020F82F002038220020DC2500206D
:20614C00140100202DE9F04F744C734FE06807F5A271ADF12C0D814207D1714890F900001C
:20616C00002818BF002040F0D4800FF0A5FE0025DFF8D8810A90D8F80000A7F84651D0F811
:20618C00B8000078002807BF4FF4860AAB4670A090E8000CA068416E02A888470320614E7B
:2061AC008DF8180030780595800807D27D20294604F00CFF8DF81850079000E00795C7F8C9
:2061CC004C51594B97F85001584AC7F8643165F3030087F85001E3685069B44607F1340641
:2061EC0007F134019E420CD0B7F84420B0F840309A4206D1B7F84220C38F9A4208BF52492B
:20620C0014D0514EFD864A4BBE6301221A7097F8412022F00F0242F0020287F84120FD6380
:20622C0097F8402065F3030287F84020DFF8049199F800700E4617BBD8F80010D1F8B81023
:20624C000F781FB99CF80010890918D33A490F7837F07F0713D139490F7887B9A068C06B9B
:20626C008047B060307B012720F00F0040F002003073B0688DF80C702C4B02905869A16888
:20628C000F6D2F4B02AA8DE8000C3146B8470028608009D50A9850F0E5FA022041F28831A4
:2062AC000AF046FE284634E01D49264F91F90000254E401C087097F90000E6602946401CC5
:2062CC00387002200AF034FED8F80000AC3001680F7889F8005007B18025B4F84C10806A00
:2062EC004FF67F720A4015432943A4F84C10C18CA4F85A10418D00F14407A4F85810396854
:20630C0004F14F063160786870600A9850F0AAFA01200BB0BDE8F08F80180020382200202E
:20632C00412A0020DB3A002000C42264DC250020382A0020392A0020DF3A00207F36002013
:20634C00DD320000402A0020C41900201401002000004F8C200000012DE9FE4F9B461546CB
:20636C00894682460FF0A8FD7B49019008680CAF504508BF48687B4C6FF0010828B1B03062
:20638C000FF072FB002840F0D6800EF023FB061C00F0DB8004F5C4700FF07AFD0023B4F9DB
:2063AC00B000C6F80C90401C86F832306FF31F30A4F8B000C6F808B0B4F8B0003086674857
:2063CC00C6F810A097E80C0020210027B8461940104006F1180383E80300424686F83320D0
:2063EC0006F1200383E88001E8683064287C86F8440028687063287986F83800A868F06324
:20640C006869B064A869F064287F86F85000687F86F851002F7C27B9EF6817B1012086F8B2
:20642C0044002F795FB999F80C0000F00F00022805D1012086F83800D9F80800706348469F
:20644C0008274568002D18BF002F70D100886FF30900B0F5305F18BF022506D196F8330023
:20646C00082540F0100086F8330006F1180090E80C00414606F1180745EA0200194387E8C6
:20648C000300D4F8D400824507D194F8D800410824BF00F0FE0084F8D80031480768002FC5
:2064AC0039D004F19C000090D4F8A410D4F8A82004F194052B463046B84710F1030F10D02B
:2064CC00B6F93010B4F9B020914207D0B4F9B01001F6FF716FF31F31A4F8B01010F1020FA6
:2064EC001BD010F1030F18D096F83300B6F9308040F0800086F8330000278AF8F47028688C
:20650C00864205D0F068007B00F00F0002281CD10AF0D0F919E06FF00200B4F9B010804699
:20652C0001F6FF716FF31F31A4F8B01005E07F1E2846FFB285E76FF0020894F8D80040F0D0
:20654C00040084F8D800C4F8D4A0019850F08AF94046BDE8FE8FC0469C0A0020FFEFFF9F3B
:20656C00982A0020E80900202DE9F0470646F08917468946ADF1280DC01D80B2054607F0BA
:20658C0035FE7A4CFF280BD12846FEF735FB854204DD641C207800B90520E3E0012000E0FE
:2065AC0000206178D9B917B1022F18D1B8B1307A8DF80C00F788ADF80A70B588ADF80850E6
:2065CC0000230093E18E94F8330001AA032302F0D5FB9DF814003074BDF81070B78194F8F2
:2065EC003310E58EE06806AA0423884649030FF0CDFB069800F0FF0100F0FF007E2806D1DF
:20660C0040467C210DF058FC069901F0FF017C2940F0A580F08942F20102C11D8FB2E9199F
:20662C008A4240F39A80F188327AC1F301238DF81D10B18843EA82038DF81C308A100646E4
:20664C008DF81E200423C0F3851201F0030142EA81128DF81F2010FB03F1F21D01F0FC0186
:20666C00731990B28DF820101FFA83FA0D282BDB4846314600220FF0D3FA0246052107A8AA
:20668C000FF0CEFA9DF82010334600F03F064A4641EAA011B0008DF8201040F002009626F5
:2066AC008DF8210029468DF8226040460CF0EAF80646514607AA0723404666700CF0E2F85E
:2066CC00304360704DD135E004F124004946324607F092FA07A90A68301900F1240948467E
:2066EC0009790260731D0171002204F1240099B20FF096FA9DF82010962300F03F068DF85B
:20670C00223041EAA011B0008DF820103B4640F0020007AE49468DF821003268B0790A6010
:20672C00B288887140468A8004F1240229460CF0A9F86070E18EED194FEA8806AAB2C91919
:20674C00E18606EBC8010919A1F84C2048B1404651460BF085FE607803E0052000E0012070
:20676C006070C0B20AB0BDE8F087C046802300202DE9F047DFF8B4910E46D9F808101F4621
:20678C0015460446ADF1300DBEB1B5B130784FF0010808FA00F001420FD0104600210FF01E
:2067AC0093FBA56066600FF087FB614D82462878022804DB504650F055F80020B3E00028D6
:2067CC006DD101F0FFFD5B495B4E086840F00200086008A8C9F800600FF076F9574E5849A6
:2067EC00707808AA0A9005F1DC000BF0DBFB554905F5887008AA0BF0D5FB08A80FF03CF9C5
:20680C00192108AB3078504A099005F15C000CF02DFE4E4A05F178001A2108AB0CF026FE17
:20682C004B49002205F5A27013460CF0DFFB4949002205F5C47013460CF0D8FB464800685B
:20684C00C0F3814030B1454A05F13000042100230DF09EFFB078012802D10E2006F000F800
:20686C0005F19C000EF0D2FF05F194000EF0CEFF002185F82C1085F82010072085F83002F9
:20688C00A962A960364B197085F82D100526E960344A2E6104206A620EF0AEF8287805EB6F
:2068AC008001401CC1F8B440C0B2287050464FF0D9FF1FB968460EF0F9FF6F4638684FF477
:2068CC00FA76E6602060B86941466062388A6175E082F869E062786800280CBF40F6C41092
:2068EC00002120612048E06120622175A061F86800B1E061786900B12062B86800B1A061F0
:20690C00C82204F13000002109F006FA04F1480000210DF04DFD1549002204F1B00013461F
