:20000000A03A01201520010039FB021039FB021039FB021039FB021039FB021039FB02100B
:1C00200039FB021039FB021039FB021039FB021039FB021039FB021011FB021002
:20003C00E43C002010390020843C0020F0390020C02B00203C3B0020EC3C0020CC3B0020C1
:20005C00943C0020543A0020E82000006C23000003240000882300007A230000A43C0020E0
:20007C00A4290020A8290020AC290020B0290020B4290020B8290020BC290020C02900208C
:20009C00C4290020B43C0020843900205C3C0020803A0020021C0000901B0000741C00005F
:2000BC00E61C0000581D0000AC220000BC230000B02300002E3D0020D03C00204C2C0020DE
:2000DC00E83B00207C2B0020FA3C0020FB3C0020243A0020703C0020C0250020C8290020ED
:2000FC00881A000036180000501F0000A82400205C230000C8350020243D0020203D0020FF
:20011C00CC290020D0290020183D0020702000001C3C002048370020D0380020A41E00008F
:20013C00702C0020003D0020103D00202C24000074240000402900204C3100206C2D002056
:20015C00014A031049480310D54903101547031019D400005D49031081470310A146031066
:20017C009548031045450310254A031021440310ED47031099490310E148031021490310E7
:20019C005553031089520310CD520310655003108D4E031069D7000005ED0000590E010018
:2001BC00E576000059510310ED50031071CC0000CD4B03102952031011530310A95503103D
:2001DC007555031069530310DD55031035550310C1D600002154031035CA00000D560310E1
:2001FC004D5D0310A9640310B55B03106D570310E5610310095E0310C55803108560031011
:20021C0071610310B16203109963031055630310FD600310B15E031071C60000D55A0310D2
:20023C00D559031009630310D963031019640310555F0310C56403104D6203107164031056
:20025C008D64031055640310E16403102975031079720310A16B0310F57203109D740310EE
:20027C00797403102D74031061730310FD7303105574031015750310D96C0310FD740310EF
:20029C0069A10000E17403103D75031079700310F9640310CD6803102D710310C17403105E
:2002BC00F56E0310B973031029670310056E0310C56F0310E1710310A1770310797D031064
:2002DC003D7E031049750310157E0310357D031099760310997C0310257B031071780310FF
:2002FC00B57D0310ED7C0310857E03102D790310B97A0310917B0310B1790310ED7B031035
:20031C00E97D0310617E0310357A0310D57E0310457C0310A57E0310BD7E0310BDBB00005E
:20033C00D9800310E97E031049830310898403108D8103107D820310E58403102B8403104B
:20035C00A1110100918703106188031045880310F1850310B18803107D880310C988031076
:20037C001D870310A186031001850310E188031099880310F9870310F5CA0000359C0310F1
:20039C00819D0310E99A0310359B0310C19B0310419A0310914000001D8C0310618F0310AA
:2003BC00F1940310919E0310C19E03103D9E0310699E0310259E0310619D03100D9E031028
:2003DC00819B0310ED93031055990310C9970310D9980310BDB20000959C0310C19D031023
:2003FC00A59E03107D9E0310C9910310C5EA0000699C0310DD9D0310C5860000FD9B0310A6
:20041C00CD990310158E0310019D0310E19C0310219D0310419D0310BD9C0310F59D03107D
:20043C00A19D031055980310E1920310999A0310B99E0310559E03106533010077580100AA
:20045C0039A20310A954010069A1031075A20310C59E0310B9A10310F9A1031015A10310F4
:20047C009DA20310716101004B08010035C700002D3A0100756001006557000031A9031004
:20049C00ADA20310A5490000B9A803106597000051B7000039A803106DA90310F9BF0000A3
:2004BC006DAC031099B1031009AF031059B1031001B103109DA9031035F6000075E8000009
:2004DC00CB3101003DDB0000D57B00006D250100B5D8000031820000D1B000006DB6000024
:2004FC0049BE0000F1B9031075BA031081BB0310853E0100E9FA0000F118010011C4000005
:20051C000D3C01006114010091450100C51401004D3E01006D4F010085570100911801007E
:20053C00AD30010051420100A927010029E00000BD5A01004903010011320100ED5A010062
:20055C00C12D0000097F000091780000F58D0000E9C603103173000061A80000B95C0100F9
:20057C000D4001005D58010051190100BFD2000091580100A55C01007D630100491D01002B
:20059C0051F0000075EC0000032C0000000000000000000000000000000000000208000064
:2005BC0000000000000000000001010008005328B42C00200308000000000000000000008F
:2005DC00000165090000000000000000012C000000000000000000000001001E0000000044
:2005FC00000000000308000000000000000000000001640300000000000000000308000061
:20061C0000000000000000000001930300000000000000000308000000000000000000001C
:20063C00000164030000000000000000030800000000000000000000000193030000000094
:20065C000000000003080000000000000000000000019303000000000000000003080000D1
:20067C000000000000000000000164030000000000000000053800000000000000000000B9
:20069C00000000000000000000000000000000000538000000000000000000000000000001
:2006BC000000000000000000000000000538000000000000000000000000000000000000E1
:2006DC000000000000000000053800000000000000000000000000000000000000000000C1
:2006FC000000000005380000000000000000000000000000000000000000000000000000A1
:20071C0005380000000000000000000000000000000000000000000000000000022C000052
:20073C00000000000000000000000000000000000000000000000000000000000338000062
:20075C0000000000000000008201081014000084000000004E9055000000000003380000DC
:20077C0000000000000000008201081014000084000000004E900000000000000338000011
:20079C0000000000000000008201081014000084000000004E9000000000000003380000F1
:2007BC0000000000000000008201081014000084000000004E90550000000000033800007C
:2007DC0000000000000000008201081014000084000000004E9000000000000003380000B1
:2007FC0000000000000000000000000014000000000000000000000000000000073800008A
:20081C000000000000000000000121030F008000520798E00800C8100C2B00206403008019
:20083C0005000000073800000000000000000000000121030F000001540890E00800C81077
:20085C00602800209303990505000000073800000000000000000000000121030F00000127
:20087C00540890E00800C810242800206403990505000000073800000000000000000000FB
:20089C00000141060F000002590798E00800C810E42A002093039909050000000738000081
:2008BC0000000000000000000001C1170F000005600890E00800C810E427002093030008AE
:2008DC00050000000738000000000000000000000001A1000F3333004C0220E80800C8106B
:2008FC00902A00206403008005000000043800000000000000000000000188F94E90550025
:20091C0000000000FF0710580000FC01000000000000000000000000000000000438000014
:20093C000000000000000000000188F94E90000000000000FF0710580000FC0100000000D0
:20095C00000000000000000000000000043800000000000000000000000188F94E900000DF
:20097C0000000000FF0710580000FC010000000000000000000000000000000004380000B4
:20099C000000000000000000000188F94E90550000000000FF0710580000FC01000000001B
:2009BC00000000000000000000000000043800000000000000000000000188F94E9000007F
:2009DC0000000000FF0710580000FC01000000000000000000000000000000000438000054
:2009FC000000000000000000000000000000000000000000FF0000000000000000000000DC
:200A1C00000000000000000000000000012800000000000000000000000100300000000060
:200A3C00000000000003FF186400000000000000000000007856341200000000BAAB0000A3
:200A5C00000000010000000001000000000000000000000000000000FFFFFFFF3C2D0020F3
:200A7C000400000000000000000000001400000030FD02101800000054240000240B000044
:200A9C00142D00200400000000000000000000002400000018FD021018000000F55B010021
:200ABC0008000000140C0000D80A0000C1C8021001BB021091EB0210DDE5021081E00210D2
:200ADC00B9E5021071E50210310000000100000001000000A424000000000000FFFFFFFFEB
:200AFC00342D002004000000000000000000000028000000B8FC0210240000001E00000025
:200B1C0018000000000000008C0D0000380B00009BEC021025E2021005EB021025DE0210FC
:200B3C00FDE10210E1E402102F000000340000002400280000000000202C0020FFFFFFFFBB
:200B5C005C2D0020040000000000000000000000380000006CFC02102800000001000000F1
:200B7C00100000000000000000000000F7F1021000001A001000000003000000EC23000013
:200B9C002F1900000800000036000000E02B0020042A002009001D00BB2C0100D428002010
:200BBC000100000000001200FFFFFFFF4C2D0020040000000000000000000000100000005D
:200BDC0048FD0210180000000000000000001300FFFFFFFF642D00200400000000000000C6
:200BFC000000000054000000A0FB02103C000000000001002D000000680A00009328010040
:200C1C0030000000AB620100140C00003C0C000075210100D9DB021059EC0210CDD60210A9
:200C3C0085DE02104DE5021029E5021030000000000016000000000000000000FF7F0000FB
:200C5C00CC260020FFFFFFFF442D002004000000000000000000000058000000DCFB021094
:200C7C003400000039FB021001002F00060000000000000020000000010000001BF8021062
:200C9C00280000008C0D0000B40C000093EC02106DEB02104DEC021029E00210BDE40210A3
:200CBC0099E402102D000000000000001C2D002004000000000000000000000010000000DF
:200CDC0040FC02102C000000000000000000030000000F003C000000000000000000000030
:200CFC002FF90210100000000800000004230000FFFFFFFF542D00200400000000000000BE
:200D1C00000000001C000000DCFC021024000000A00C0000042D002004000000000000008C
:200D3C00000000000C00000000FD021018000000EF39010000000000000000000800000033
:200D5C000100000004000000000000000000140000000000A01F000000001900000018006E
:200D7C0024000000B16301000040000000020000680A00000000100055F002100C000000F7
:200D9C00C5AE000000000000FC2C00200400000000000000000000002000000010FC02103A
:200DBC0030000000B81F0000010000009762010023220100000000000000170000020000B6
:200DDC0031000000000023000000150001000000240C00002C2D00200400000000000000E0
:200DFC00000000002000000094FC021024000000D01F0000C02C002020000000C0210000F5
:200E1C00403500204C390020DC2C0020DC3C00202C260020F43C0020FC1900001015000020
:200E3C00B4340020CC3600208C380020A82C0020FC230020242400000908031001010310D4
:200E5C00890903105D0303100105031089060310D1080310210A0310810B0310810A03103C
:200E7C00110B0310510B0310D10A031029100310610D0310890E0310050E0310B50F031056
:200E9C00D10B0310511003103D10031065100310FD0E0310ED0F0310B50C0310650F031063
:200EBC00111003106910031009120310F5120310AD110310291103105D120310B112031098
:200EDC0019250310552703108D240310F12603100528031089260310CD230310592803108F
:200EFC00ED1F0310251303100D210310911D0310B12703100D22031099250310192603101A
:200F1C00A91B0310CF2803109528031039290310052903106D29031099160310C91E0310E9
:200F3C007D1903100D230310C92C03101D2C0310292D0310B52B0310F52C03109D290310DC
:200F5C00CD2A0310452B0310472D0310112D0310412D0310752C031029340310C13803105F
:200F7C0071360310A12E0310813303106D380310A93A03103D3A0310C53403101138031052
:200F9C00753A03104D2D031009320310E12F031015390310F939031019310310B137031077
:200FBC00F5350310B13903105D350310C5320310E5360310693903104D370310253D03103D
:200FDC00413D0310F53C0310C93A0310A53C03109D3D0310593D031019430310CD3D0310F4
:200FFC00A14303104D400310093F031061420310CD400310C9430310E5430310C93F031098
:20101C0011440310FD4303101F440310A942031019420310E1420310C14103107543031001
:20103C0049430310494103101B440310AD0B03101D630100216301002D630100F36101002F
:20105C003163010029630100256301003963010035630100043D00206D400021D74000212C
:20107C0099400021F940002105410021114100212941002141410021074C657900F009F8D6
:20109C0061796940490703D50121044A8903116070BD70B50249084780030021081104402F
:2010BC002D59000000F019F8E1B26C290BD0042801D0062807D10E490978C90703D1217872
:2010DC00090700D402200B490A780C21114202D0094980220A6003B0F0BDF0B583B00749E0
:2010FC0008470448017840229143017004480047C80000213301002100E200E0411603002C
:20111C00231B030000F082F800480047577F000000F082F8004800471B880000094B1A7821
:20113C000824A243002800D022431A70004A1047838E000003490878000701D402480047B0
:20115C0070470000800300215F7E0000044A282090470448012141600348044A416010472E
:20117C004F42000000500440006004408542000070B51F4D2878C4B21E4880472878032824
:20119C0034D1032C32D01C488068400DC2071A48014660318030002A03D01F240C57458841
:2011BC0002E01E240C570588002C1FD01348154A416900794143481011494969401810496E
:2011DC004039497F904740054015694288420DDBA8420BDC0C4B996988B20246090C62437E
:2011FC0009045212801880B20843986170BD0000E402002179410000280000218003002179
:20121C0000030021CB81000040400440806B0C490007000F48717047094A0A49182350790E
:20123C00CB56497EC018814201DD084602E00F2800DD0F20D189090909010143D1817047FB
:20125C00E0020021880000215D40002189400021954000213B410021074C657900F009F869
:20127C0061796940490703D50121044A8903116070BD70B50249084780030021081104404D
:20129C002D59000000F00AF800480047577F000000F00AF8004800471B880000806B0C49F1
:2012BC000007000F48717047094A0A4918235079CB56497EC018814201DD084602E00F281A
:2012DC0000DD0F20D189090909010143D1817047E0020021880000210122274B0221254852
:2012FC00184710B5254880472548406A00280DD124490A200856002809DA401C07D00846DC
:20131C002038406A2049884200D1804710BDFFF7E3FF10BD00211E4B1C4A084618470120B4
:20133C001C49400208601C48FB220178114001701248EC38004710B5184988471149203959
:20135C00012807D0020404D50020088514484862012010BD4A6A094BEC3B9A4201D1114AB9
:20137C0005E007494A6A104B9A42F2D10F4A4A6210BD0000060800009F060000A1920200B4
:20139C00080100215401002163920200E7400021B5B4020080E100E080030021F796020073
:2013BC00DD40002123410021699502001941002100000000000000000000000000000000D3
:2013DC000000000000000000000000000000000000000000000000000000000000000000F1
:2013FC000000000000000000000000000000000000000000000000000000000000000000D1
:20141C000000000000000000000000000000000000000000000000000000000000000000B0
:20143C00000000000000000000000000000000000000000000000000000000000000000090
:20145C00000000000000000000000000000000000000000000000000000000000000000070
:20147C00000000000000000000000000000000000000000000000000000000000000000050
:20149C00000000000000000000000000000000000000000000000000000000000000000030
:2014BC00000000000000000000000000000000000000000000000000000000000000000010
:2014DC000000000000000000000000000000000000000000000000000000000000000000F0
:2014FC000000000000000000000000000000000000000000000800000000000000000804BC
:20151C00FA000000FFFFFF000C1100000000000000001D1100000000000000002E010F002F
:20153C000000FA0000002F0100000000FA000000300100000000FF00000031010000000009
:20155C00FF00000032010000000003000000330100000000030000003401000000000100CD
:20157C000000350200000000FFFF0000370200000000FF000000390200000000FF000000A8
:20159C003B0200000000FFFF00003D0100000000FF0000003E0100000000010000003F0137
:2015BC00000000000100000040010000000007000000412000000000000000006102000002
:2015DC000000FFFF0000630800000000000000006B08000000000000000073080000000098
:2015FC00000000007B080000000000000000830205000000580200008501000000001000D2
:20161C00000086020000000032000000880200000000320000008A02000000000A000000A2
:20163C000097B92EE5725CCB5DCAE473B82F0196BA2D03945FC8E671E7705EC90295BB2C9E
:20165C00E3745ACD0691BF28BE2907905BCCE27559CEE077BC2B05920493BD2AE17658CF7E
:20167C0051C6E87FB4230D9A0C9BB522E97E50C7EB7C52C50E99B720B6210F9853C4EA7D5E
:20169C00B2250B9C57C0EE79EF7856C10A9DB324089FB126ED7A54C355C2EC7BB027099E3E
:2016BC00A2351B8C47D0FE69FF6846D11A8DA334188FA136FD6A44D345D2FC6BA037198E1E
:2016DC0041D6F86FA4331D8A1C8BA532F96E40D7FB6C42D51E89A730A6311F8843D4FA6DFE
:2016FC00F3644ADD1681AF38AE3917804BDCF26549DEF067AC3B15821483AD3AF16648DFDE
:20171C001087A93EF5624CDB4DDAF463A83F1186AA3D13844FD8F661F7604ED91285AB3CBD
:20173C0000CD2A031000452B0310021F44031000FD430310011F44031000FD43031003D197
:20175C000B031000FD430310045110031000FD43031001472D031001412D031001FD4303E3
:20177C001001FD43031001FD43031000752C031001FD43031001FD43031001FD43031001E4
:20179C00FD43031002472D031002412D031002FD43031000752C031002FD43031002FD432E
:2017BC00031002FD0E031002FD430310046510031000FD43031003472D031003412D031098
:2017DC00031F440310031F44031003FD43031003D10B031003FD43031000752C031003FDA9
:2017FC0043031003FD43031004472D031004412D0310041F440310041F440310041F4403B3
:20181C0010046510031004FD43031004FD430310043D10031000752C0310000136360101DB
:20183C000001020100010301000104010606080400000C0100340D01000F100401011401DC
:20185C0000FF1608000020020000220100FF23010001240100FE2501000826020000280144
:20187C000001290100012A0200002C01000F2E0200003001000131010008320200FF3401B4
:20189C000007350102FF360100003701000138010001390100FF3A01000F3C0200FF3E0145
:2018BC00010F3F0100014001041F41010001420100FF43010080440800004E0100084F011B
:2018DC00000F50010001510100FF5201000A5301008954010001580400005C04000060048A
:2018FC00000064040000680400006C0400007004000074040000780400007C04000080011F
:20191C0000FF81010001820100018301010284010001FF00702D0020303D0020313D0020C1
:20193C00712D0020283D0020722D0020732D00207D610100B9460000155A0100AD49010084
:20195C0001450100911C0100ED1C01008DDF000059270100CD4C0100D1440100092701001E
:20197C0043620100CD5C010031510100B5410100014F01005549010081490100E94101001B
:20199C003145010045F7000051CF0000374B01006D2001003118010059610100656101007B
:2019BC00A30C0100DD560100130D0100DDDB000065300100DDF000001D42010089610100A0
:2019DC0091530100755A010085630100493C0100598F0000315301007DF20000412B01007E
:2019FC00FFFFFFFFFFFFFFFF9A100000000000000000000000000000000000000000000029
:201A1C000000000000000000000000000000FAFA140000000000000000000001000001019F
:201A3C0000000000000000000000000000000000000000000000000000000000000000008A
:201A5C0000000000000000000000000000000000000000000000000000000000000000006A
:201A7C00000000780008020030000A00360001000600000000000000000F00000000000042
:201A9C00000000000000000000000300FFFF00000403FFFF0000FFFF0F00E8030005401FC8
:201ABC000310000101000000FF3F0F0008000E0000000000000000000300010F0000090175
:201ADC000100000000000000000000000000000000000000000000000000000000000000E9
:201AFC00000000000000000000000000AD000001000000000000000000000000000000001C
:201B1C000000000000000000000000000000000000000000000000000000000000000000A9
:201B3C00000000000000000000000000000000000000000000000000000000000000000089
:201B5C00000000000000000000000000000000000000000000000000000000000000000069
:201B7C000000000000000000000000000000000000000000010171010101010111010101BD
:201B9C0031010101010180010001100161013B0014006301730172016201430100011301A8
:201BBC0006013D01350004011201000100010001000104010401330133013C01440132014C
:201BDC00360000010001650100013500810100010501820183010001660100010001080112
:201BFC0009010A010B01030071003001600011007000310220035004800007001000610080
:201C1C00000014006300730072006200430000001300060000000000040012000000000078
:201C3C000000000004000400370037003C0244000000000000000000650000003500810075
:201C5C0000000500000083000000660000000000080009000A000B00030271023001600249
:201C7C001102700201020202020280020002100261023A004100630273027202620243024D
:201C9C000002130238000002000204021202000200020002000204020402370037003C02FB
:201CBC004402000239000002000265020002350281020002050282028302000266020002E2
:201CDC000002080209020A020B0201037103010301030103010301032203020301030003FB
:201CFC00100300030003000300030003000300034203000324030603000300030403120306
:201D1C002503230325032303040304030003000300034403000300032303000365032100F5
:201D3C003503810300030503000300030003000325032303080309030A030B0303047104B8
:201D5C00020460041104700402040204010402040004100461040004140463047304720470
:201D7C00620443040004130406040004000404041204000400040004000451046400000482
:201D9C000004000444040004000400040004650400043504810464000504000483040004A0
:201DBC00660400040004080409040A040B040000295801000D5C0100ADEE0000753501002D
:201DDC00F1510100C5E00000E5010100AD50010011520100114701003F470100B1390100EB
:201DFC00ED4201000D590100691A01002D29010035130100C51A0100DBFD0210914F010061
:201E1C0011DC021039EF0000C9600100314A0100F95D01000D5E0100BD5701005D6D000037
:201E3C0009A500000000000000000000000000003D5901006D5D010009060100315D0100D7
:201E5C00C9620100C3620100815D01000000000077620100950501009D0901006D56010055
:201E7C00E5EB0000855E010099BC0000456900009DF40000F152010000000000651F010035
:201E9C0019560100FDD900000000020000000200020002000000320004000100000002009F
:201EBC000000000000000000050001000000070006000100000003000700080000000000E0
:201EDC000F0001000100FF001000080000000000180008000000000022000200000000007A
:201EFC008F0000008F0001008F0002008F000300900000018F00010190000002900000033D
:201F1C008F0001048F0000058F0008048F0000048A000006510000007F0001003F000400AB
:201F3C003F0002003F0001007F0002008F0002048F00010238C40D00C8000000810000000A
:201F5C0032000F0100C50D00900100004000000096000501952B0D00C8000000220000002D
:201F7C0032000F020000000000000000000000000000000000000000000000000000000002
:201F9C00000000007B7374617469632D696E7374616E63652D6E616D657D00C07B656D70D8
:201FBC0074792D696E7374616E63652D6E616D657D00C0467B756E6B6E6F776E2D696E7343
:201FDC0074616E63652D6E616D657D00011E01001FF9021045F8021059F802106DF802101C
:201FFC0081F8021095F80210EDFE000021460100B538010079400100FD4F0100495E0100AB
:20201C00115401009D3F010041600100DD5B0100A50C01007D5C0100DD5E01004F6001000E
:20203C00CD5E010057620100A56201009F6201000000000000000000000000000000000094
:20205C00000000000000000000000000FB5F0100ED5F0100C003000080070000000F000063
:20207C00001E0000003C00000078000000F0000000E0010000C003000080070000000F0048
:20209C0000001E0000003C00000078000000F0000000F0001404C0A0FE0000001404C0A084
:2020BC000A0480A0090480A008400080FE0000000D0480800C4000800604808007048080F1
:2020DC000F2000800E200080FE0000000000000002000000020000000A0000000200000079
:2020FC000200010000000000000000000000000000000000000000000000000000000000C1
:20211C000E0000006F620100B7620100B14301008D55010075230100A95501006DFC0000D0
:20213C0099320100B1600100F99E000065FA0000991301007F620100918C0000BD9D0000A9
:20215C00CF620100112A0100FDB90000D562010031EA0000140C0000882100008D5F010036
:20217C009D5F0100BD5F0100AD5F0100B146010045500100B54A01003200000000B000406C
:20219C001400000034000000FF000000000000000D0CFFFF1C3B002020000000010300002A
:2021BC000000000015F9021001E602102DDA021045E7021041D10210C9D30210A5DF02102B
:2021DC002DE4021061EA0210F538010000000000FFFFFFFFFFFFFFFF00000000000000003D
:2021FC000101010100C2010003000000000000008C0D0000202200009D63010069F10000C3
:20221C00650701005146010021500100894A01002E000000FFFFFFFF00000000000000002D
:20223C00000000003A013A010000000000000000000000000C2200000C2D00200400000081
:20225C00000000000000000020000000C42200001800000070210000242D0020040000003E
:20227C00000000000000000014000000902200001C0000001C000000000000000000000044
:20229C00A422000000000000080000000000000000000500BD00B700B100BC001C00300022
:2022BC003800080038010200180000000000000000000000D4220000080000000000000071
:2022DC0000000000A9C50000435801000101010000000000000000000600000002000000CD
:2022FC0086000000820000000100000000000000000000000000010000000100001610167B
:20231C000E18151C0212032418580302100258000200000000000000FFFFFFFF0000000032
:20233C000200000000000000FFFFFFFF0000000000000000200000004000000060000000C3
:20235C0088B2240088130000100000000000000100A6AAACA4A9A9A399B19ABCB6A8313162
:20237C0018191A22311C1E2031313431313117191A21241B1D1F313133310000030102026C
:20239C000000070001000000FF00000000000000000100000C0E020B040B0A070800110FAA
:2023BC00000120181A18182C34041E00202100001C3D002044240000FF00010000000000DA
:2023DC000000000048210000982F00209821000025DD021031C8021075DF02100100010051
:2023FC000102030001000102040201010101090200BE040A00BE0208010200030200010302
:20241C00FFFFFFFFFFFFFFFF35452515020305040004081000040810043C00202E19000007
:20243C00FF0000000000000000E00400008000000000000008000000000000000000000015
:20245C0010040810181C10000810182004040810181C000001020304000105090000000033
:20247C001000000001000000E7620100A16301000B1A0100ED620100252C010061010100B5
:0C249C00996301000A00000025590100AE
:2024A8002DE9FC47D44C0F460546F80B80F006826078DFF85883B90F80F0AA81B90880F0E2
:2024C8009D81F90A80F00281390B80F0CC80380907D2F80FC0F0288227F080470EF04CFC41
:2024E80022E213F029FF814612F0DEFE002800F0B480082013F0F6FD002840F0AE80802070
:2025080013F0F0FD002840F0A88068460BF00AFF012803D10098002800F09F8094F8310206
:20252800002840F09A8000250126E8B213F02EFC48B1837A3BB1867290F9090006FA00F0B2
:20254800C0B211F063FC6D1C032DEED3032084F8200004F5C47013F0DBFE484654F060FE2F
:20256800D34800252A460168056050F8081CD14940F8085C04F15C0012F0C6FD40460068AF
:20258800006B8047A168401A010BA06AC1F1FF3282422CBF08444FF0FF30A06294F82C0082
:2025A80020B12069A16AB1EBC02F25D912F08CFE294600B13146081C1BD0BF4840F60901AC
:2025C80001804580417B06F00F0221F00F010A434273017B05F00F0321F00F0143EA0102F3
:2025E80002732946416013F09DFC418811F4406FFBD084F82C60A56210F080FBCE4829465B
:202608000560022012F042FC022011F0FDFE11200AF04CF9207818B96068483013F09AFE19
:20262800C648007810B90E200AF040F994F82D0020B184F82D50052011F0E6FEC04860628B
:2026480084F82050B4F9B000B4F9B210884214BF022007200DF07EF902E0484654F0E0FDCF
:2026680027F008073AE720B1042011F0CDFE00206070656811F0AEFB38B12846ED696FF4D3
:20268800807100224FF00073A847E06858B140460068006B8047E2686168801AC860000B2D
:2026A800C8600026E660A74904F15C00002212F02BFD0221D4F89C0084F8201018B104F1FC
:2026C800DC0013F04FFE27F4006707E713F034FE064612F0E9FDD4F894100028894600F096
:2026E8008480002900F081809749042504F15C00002284F8205012F007FD304654F090FDFF
:2027080004F5C47013F004FE40460068006B8047E0604FF0010884F80180284611F08CFEE1
:20272800D9F810006060D9F81000416AC90803D3036A29460022984740460EF0E5FF6068B0
:2027480080F8158060680AF031FA6568D5F808A040F60A02D01F564600F1010C00E01E4626
:20276800736833B119888A4203D0884218BF8C45F5D100217160727B08F00F0322F00F020E
:2027880013437373D9F80C201288904224D06046904221D02B8E03B3696305F130025180FB
:2027A80095F83C0001F00F0320F00F00034385F83C3095F83D0008F00F0320F00F000343BE
:2027C80085F83D307260707B01F00F0520F00F0045EA0001717300E0E160504613F0A2FBBB
:2027E8005146404612F052FB02E0304654F018FD27F4806798E0C046E809002006F05AFED5
:20280800D4F89C0008B927F002078DE08C0100104E4A116841F08001116020B1042011F033
:20282800F3FD0020607013F087FD8246D8F85400016804208847D0B1287DC0B1A068B0B1E1
:202848008146D8F800002E69006B8047A0EB09002861000B2861B04202D28019400828612F
:2028680040F6C41181422CBFB0F5967F2961504654F0D6FC11F0AEFA80B1EE6928466FF4A5
:20288800807100224FF00073B047D4F89400002808BF47F0020701D00EF06EFA2846AD692A
:2028A80000214FF080630A46A84727F000573BE0141004407D1B0100343C002013F03CFD38
:2028C800D4F8AC6066B306F1280106C90A234FF0E0450B40154008BF002B21D106F12801DB
:2028E80091E8000306F1280595E8060006F1280322EA090221EA080183E8060054F090FC1F
:20290800B16879B1B9F1000F08BFB8F1000F09D03069B6F93010B5684B464246A84701E0CD
:2029280054F07EFC27F4804727B104F1DC00394613F018FDBDE8FC8700000460D62300002A
:20294800CDB10000CDAF000091520100CC2108402DE9F04F8046C14808300068416EADF14B
:20296800440D03A88847BB4C2268106C07682FB9D2F84C0580472268106C0768B6480121A9
:202988007E68636801703578D86805F0200A057845B9D2F858240846002190472068006C06
:2029A80007687E683D8912F0CFFC002702200E9033880F97180955D320684030816F0F7827
:2029C800002F4FD0016809684B6A4F6E996AB1F1FF3F35D0A7B34A1C9A62026812689162DA
:2029E8000068006890F82B0007F801092068006C006890F82A0007F801092068006C0068D0
:202A080090F8290007F801092068006C006890F8280038702768386C0268106A0095019003
:202A2800801B281A80B20290506A916AD7F8C07492F88C2033461530B847071C01D111E05C
:202A4800DB272068D0F8B800416C19B9E42009F063FA04E00F98CB4A1070E4208847002F69
:202A680040F08B812068D0F828240BA9642090472068D0F8B800007838B160680069007855
:202A880010F0A6F8012840F07581BF4B2168A81C87B21F80D1F82824E9200DF12D019047F1
:202AA8009DF82D00012805D13D46C5F3022040F0180005E02D1DADB2C5F3022040F0080008
:202AC80006F8010DB14F06F8015DB7F8040110F059FA012840F04C8131782846C1F340113D
:202AE80008F0D6FCC7F8106108900F9E9DF82C00A7F8F66000280CBFA548A648B346CDF84D
:202B080018B007F17C056E80C7F8540107F1F409C9F8180097F88900A7F89A6020F00F00CC
:202B280040F0030087F8890013F006FC0C909A48B8F1010F0D9021D0B8F1040F1ED0B8F135
:202B4800000F18D0B8F1050F12D0B8F1030F0CD12168D1F8D40090F85300D1F83C14884756
:202B6800C07B022818BF4D460AE007F1F40507E08A480D9004E007F1980501E007F17C057A
:202B8800BAF1000F6CD0A7F8466107F5A270C7F8F80097F8503197F80101DFF8049220F00E
:202BA8000F0040F0020087F8010123F00F0040F0070087F8500199F800103C23B3FBF1F291
:202BC80023684FF4E178B8FBF1F0801A042211FB02F109B24143C7F84C11D3F8D400D3F8AE
:202BE800181490F853008847DA46042808BF4FF0010A4846BAF1000F0ED10078236898FBDD
:202C0800F0F18AB203F140018B6F1B78002B0CBF883202F5F4720EE00078236898FBF0F15B
:202C2800CC318AB203F140018B6F1B78002B0CBFE03202F5CC6292B25043524A86238000C8
:202C4800137000F57A60C7F86401564B0E9320220F9211E014010020832C00200024002098
:202C680097F80101012161F3030087F8010158462168C7F8F80040314B4A414B5069DB6855
:202C8800904607F134029A420AD0B7F85C20B0F840309A4204D1B7F85A20C38F9A4217D040
:202CA800424A3D650123137007F14C02568097F8593023F00F0343F0020387F85930C7F8DF
:202CC80054B097F8583066F3030387F858301546C5F808B02A7B66F303022A738A6F167874
:202CE800BEB109680E68A6B1317D352911D024488068C06B8047A860287B20F00F0040F0F2
:202D08000200287301268DF81060A8680390D8F814001B4989680F9A0E6D0E998DE80600D0
:202D28000D9B294603AAB04721490028088013D50C9854F075FA21684031886F007828B135
:202D48000868006810B1007D352813D0012041F288310EF04FFB10E0164991F90000084E91
:202D6800F437401C08700C98F76054F059FA04E0E12000E01A2009F0CFF811B0BDE8F08F16
:202D8800002400202F3D00209C1C0020981B00204E9055550E7A5555A9430000F999000078
:202DA800BC2A002002004300A4270020842C0020382C00208C2C00202DE9F04FC04C0646FC
:202DC800A068D0F80001807AADF1340DC0000CF069F80028089000F0E58113F0ADFA0B90C9
:202DE800A068D0F888240AA982209047BDF8280004F1080500283FD14FF000084FF6FF740D
:202E0800ADF8288047460BE0D2F894238DF82470D42004A99047BDF82800401CADF82800CD
:202E28002A6802F580721068BDF828108088884205DCD2F8942382200AA990471CE0ADF8A9
:202E48001440BDF82800ADF81640FF210822ADF8100006A80DF0C2F92A68384602F58072E0
:202E68001168897A8142CFDD089BC100401C5F50C0B2C9188C80F3E70020CB4CADF82800B3
:202E88002068D0F800012A6800894FF6FF79A04602F591620CE0BDF82800D8F8007022689E
:202EA800401CADF82800D7F8000102F591620089BDF82810884240F365812068D0F800017D
:202EC800C07A4FF0000A0127554612E02068D0F800012268C0886D1CADB202F591624AE093
:202EE80020682268D0F800016D1CADB202F59162C07AA84208DC002FCDD1BAF1000F32D18B
:202F0800F07F0028C7D02EE08DF80250BDF82800ADF8000012686946D02090470028DFD14C
:202F28009DF80C0001280AD19DF80B0038B92068D0F81C150DF1030088470028ABD1337DAE
:202F48009DF80C00002B0CBF0522092257468342C6D10DF1030006F1150112F045F9002811
:202F6800BED04FF0010A2068D0F800012268C088002502F59162A84264DDADF80250BDF868
:202F88002800ADF8000012686946D120904700289CD1BDF80400814598D0ADF810002068B2
:202FA800D0F8882404A9D4209047002840F01B8106A8311D082212F017F9002886D03088BB
:202FC8007788ADF81400BAF1000FADF8167023D0307B27688DF82400D7F80001877A002085
:202FE80001E0401CC0B2874207DC0B9854F018F90898002800F0FE80FAE0089901EBC00118
:203008008A88914503D0BDF828309342E9D130690860BDF828708F802068D0F8942404A93F
:20302800D4209047BAF1000F0CD0B07F9DF80610884207D08DF806002068D0F8942469466A
:20304800D1209047226802F580721068C088A8427FF421AF2068D0F8000180884FF00008A0
:20306800C346AEE02068D0F81C1506AD2846884738B9311D2846082212F0B6F8002800F0A1
:203088009580308877882346ADF81400357BADF8167018682268D0F800018DF8245090F80B
:2030A8000AE0B832584601E0401CC0B2864509DC0B9854F0B5F80898002873D070E0C04642
:2030C8000C0100200899C50001EB050CBCF80430994503D0BDF828709F42E5D1301DBAF1E3
:2030E800000F0CBF5B463369CCF80030BDF8283049198B80456806AF7D6003683B60116885
:203108000F783FB10F6D2FB1BDF810103A4690472268B8325D4603E022686D1CADB2B83252
:20312800906CC188A94228DDADF80250BDF82800ADF80000D2F8D0236946D1209047E82895
:2031480003D0BDF804008145E6D1BDF810008DF807B0B77FADF8040023688DF80670D3F82D
:20316800942404A9D42090472068D0F894246946D12090472068D0F800018088A84215DD63
:20318800404508D00B9854F04BF8089808B110F0EDF900202FE00B9854F042F8089808B1B8
:2031A80010F0E4F91A2026E0140100202768226808F101001FFA80F8D7F8000102F5807258
:2031C80080884045DCDDD2F88823ADF81080D42004A9904700283FF445AF0B9854F020F831
:2031E800089838B104E00B9854F01AF8089808B110F0BCF919200DB0BDE8F08F2DE9F04FE4
:203208004FF0FF084146ADF14C0D0E910F914FF0000910914E46089609960A96AD4C0B96AF
:2032280004F1300B0C96E0680D96494611919EE0E068710306AA042312F0E6FF119903AA49
:20324800304612F083F902AA3046012112F07EF93046022101AA12F079F9069800F0FF0070
:2032680028709DF81900069F6870C7F30140E8709DF80E30AB702878FF2834D0BDF80C7046
:20328800FE2830D04FF6FF70B8422AD107A810F023FCE06871034FF088524FF4005312F01C
:2032A800B3FFB8484FF4005750F8041D3F1FBFB2B1F1FF3F07F1885201D1032FF4D8106888
:2032C8004FF0010A514600F0FF03FF2B18BF8A46491C000A0529F6DB1060079812F006FBC2
:2032E8005744EF8001E01020E8809DF80A00BDF8087028719DF806302F81BDF804206B71AE
:2033080029786A81E068FF292AD0FE2922D07E291AD07C2912D078290BD0702904D00D99EF
:20332800491CC9B20D9120E00C99491CC9B20C911BE00B99491CC9B20B9116E00A990F968C
:20334800491CC9B20A9110E009990E96491CC9B209910AE00899B046491CC9B2089104E05C
:2033680009F1010710965FFA87F9761CF6B2E578B54200F31F810D9F002F38D108980228F5
:2033880035DA0C98022832DA099802282FDA4D452BD00C98C0B90898A0B90B980A99084334
:2033A80025D011F017FC854219DCB9F1000F14D094F83200FE2110F0DFFFE5780120DDF895
:2033C800408015E0012013E0089860B9B9F1000F07D111F0FFFB854201DC062008E0032002
:2033E80006E00220EBE7022002E0119800E004200028A07000F0C880401E49D0401E00F005
:20340800A980401E06D0401E00F09780801E00F093800AE111F0DEFB05460C2084F83C50FD
:2034280015FB00B0817E84F83D10C07E84F83E0007F0B8FFE2782D1895FBF2F050432D1A6B
:20344800E8B284F83200401C90FBF2F15143401A84F831007C2010F085FCFF2810D17E20F4
:2034680010F080FCFF280BD1FF2010F07BFCFF2806D1782010F076FCFF2808BF94F831007C
:2034880084F833000C2110FB01B0808BE0868BE00F9F08F1010090FBF5F184F832806943BD
:2034A800FF2FA0EB0100C1B284F8311014D10E98FF2804D10C200E9111FB00B004E00146E1
:2034C800880000EBC100584484F83310808BE086ABE0C046482500203A46D0B2910084F8B7
:2034E800330001EBC2015944898B1729E18640F29C80C91F01AA89B20AF00CFC9DF80F00C8
:20350800C0083BD3119F0097BDF81220E18E94F833000323891AC91F01AA89B205F020FFC6
:20352800002840F08280BDF8101000297DD09DF814000FF0D1F978E0FEE7119EB54223DD89
:20354800304609F053F96178E578761CF6B201436170F3E708F1010084F8328090FBF5F1B0
:203568006943401A84F831005FFA88F009F03EF96070FE215FFA88F010F0FEFE119801F039
:20358800EBFC52E00020001111986D1E84F831000C2184F8325010FB01B184F83300898B4D
:2035A800E1867E2110F0E8FE94F83200FE2110F0E3FE3AE00C2116FB01B506AA0423710300
:2035C80012F022FE1199304603AA11F0BFFF304602AA012111F0BAFF3046022101AA11F0F2
:2035E800B5FF0699163501F0FF0201F0FF00FF2A09D0FE2A07D07E2A05D07C2A03D0782AAA
:2036080018BF702A0AD1119F47B9C1F38542032A04D19622B2EB116F3FF422AE304609F0E2
:20362800E5F8002860703FF403AE13B0BDE8F08FCB482DE9F84F0068DFF8C4A20C469046A5
:20364800B830C169DFF8BCC291F88320AB499946012A00F08F80C148C14F04687868C06845
:20366800022301224FF0E046002503EA080B027016EA09060D7008BFBBF1000F37D14FF4A5
:20368800803015EA090700EA080008BF00281AD129464FF4003011EA090700EA080008BFF1
:2036A80000280CD14FF4800011EA090100EA080008BF00280FD025710DF03AFD0BE025712A
:2036C80010F054F807E005200DF00EF80EF020FF257153F06DF920202F4600EA080017EA83
:2036E800090708BF00282DD012F01EF82AE0AE4991F90000002803DD91F90000401E0870BB
:20370800514691F90000002803DD91F90000401E08704FF0807705EA080017EA090708BF13
:2037280000280CD0A14991F90000002803DD91F90000401E08706046027012F07FF9257179
:203748000DF0F6FC9AF9000058B1002E08BFBBF1000F00F023819AF90000002800F31E8145
:203768000FE193487E4F05703868D0F858242946084612E17A4A01232027002552688E4EB6
:20378800D268DFF840B2137017EA09070D7005EA080108BF002966D12A464FF0E04702EA2C
:2037A800080017EA090708BF002839D18349DFF810C24FF4860012EA090700EA080008BFEC
:2037C800002816D17B4812EA090700EA080008BF00285BD006F12800B480B9F1000F80E883
:2037E800000308BFB8F1806F50D1088802284DD10EE006F12800B480B9F1000F80E8000301
:2038080008BFB8F5803F41D10888B0F5505F3DD1304680686746436938682146984735E0B7
:20382800614991F900004FF0807702EA080217EA0907A0F10100087008BF002A03D060469B
:20384800037012F0FBF85A46B2F90000844201D10DF06EFC6FF001005146B08091F90000FD
:20386800401E087012E06FF001015A4600681180017859B154480078832802D0534981202D
:203888000870316911B128468847B480464FAB4602201BEA090300EA080008BF002854D01D
:2038A8004B49B1F8460143F2014181422CD0C91C814229D04649C98E43F604028A4223D0C1
:2038C800B6F9043097F900109C42A1F10101397002D0824223D120E006F1280003C84FF48B
:2038E80082022C4610400C4008BF002802D10DF01FFC14E053F05CF811E0C046842C002002
:203908008C2C0020852C0020707897F90040401C7070601E38700DF00BFC11F0FFFA2C486A
:203928000F4BA0F8465118686FF00104D0F8B800B480017811B12748017809B912F07EF801
:203948009AF90000401E8AF8000097F9001009B9174805709AF90010C9B103E0BC3A0020A0
:203968001401002002224FF0E041104611EA090700EA080208BF002A10D09AF900000028A5
:203988000CDC15480068D0F84C05804706E012480068D0F858242946284690470E484068F4
:2039A800C0680570BDE8F88F8D2C00208E2C0020822C002000000C8C00240020DE1C0020BF
:2039C800B8270020042400202F3D00202A3D0020981B00202C3D0020140100202DE9F04F9F
:2039E800C64C60692589216AA689806DADF1240D2A46891908310AF061FB7619B0B266695F
:203A0800B16D4919BE4DB1652968D1F8D41091F88370216A0B1808331B780DF11E02137026
:203A2800DFF82083022F00F1010080B208D141180A7A66694346591C0A70216A401C80B299
:203A48000A180832126802A9001D0A6080B2A081042102A811F0E8FC0290034612F0B4F9C5
:203A6800F063184611F01AFEA6F84000EA2010F09DFBB3484FF0020B022F80F800B00BD178
:203A880068684069007838B14146087810B94878FF2801D00420E0706769E078397C084320
:203AA80038749DF91E0012F067FC87F8460007F17406BE6539899DF91E007B6887F84800BF
:203AC800B7F85C004FF00008401AC01801467860B88987F84780820A18D2020926D310F03A
:203AE800070F07D000F00700032812BF081C7868401C17E07968C87800F00702401000F02D
:203B0800380000EB42004018001D0BE02868D0F80813384688476769786E10B1B7F868008A
:203B280090B178687861B889000916D297F8600010B32868D0F80C13384688476769F86CA7
:203B4800D0B1B7F85000B8B92868D0F8541204F11400884740466061EDE02868D0F8B414A2
:203B680038468847787067697E78B86978651EB1F22010F01BFB67692E68D6F8B810B88910
:203B88000B7808939BB9C0F30131022940F0CA8010F0070F00F0C68000F00700032840F083
:203BA800CA8078680078072800F0BC80C3E0DFF898A100F0070CBCF1020F68D16378002B4D
:203BC80065D17B78002B62D161698DF81F800DF11600283112F016F9616928314F6803A865
:203BE80047600E8906810A680260574607F110022B681088401C1080D3F8B8006169436A6C
:203C0800486E0DF11F020421984704F1140938B92868006C006818B19DF81F1080F86810DF
:203C2800666996F83000022813D12868D9F80030D0F8D4705A4607F1200103F1280011F06E
:203C4800A3F930B907F116010DF1160012F0DAF866693E480078862809D1BAF81200401C6B
:203C6800AAF81200B08900F010000EF0A5FC2968B8310A68107830B1976C27B16069394638
:203C880088472968B831D1F89C1148464DE0304A1378002B3ED0C0F3013CBCF1020F39D1AC
:203CA8007878002847D169689DF81E00896853460870E6786769988A002E07F1280207F1AE
:203CC8001C0C00F1010098820CBF414608212E68D6F8B80003782BB31E4B404618600091C0
:203CE800CDF804C0D6F8D400117AD6F87863C38C0D20B04730B90EF0E1F905E0AC3A00203E
:203D08001401002011F010FD2E68D6F8B810087867690890089B2BB1896C19B138468847B9
:203D28002E686769D6F85812384688474046606111F032FD01E00DF0FBF909B0BDE8F08F6A
:203D48002A3D0020E4090020342B00202F3D00202C3D0020402C0020B0B50446C948076878
:203D6800ADF1480D002F00F08A812078401E122800F28581DFE810F0680154013A01250110
:203D88001E010801F600E800C800B700920067005D004C008301340026001C0013007B6C00
:203DA800002B00F06C810020A21C0146984766E1F86B002800F06381684621460BF0FEF843
:203DC800F96B5AE1386C002800F059816846002101220CF003FA60788DF80000396C4CE18C
:203DE800F86A002800F04B81684600210E220CF0F5F9A11C684611F0F1FDA57BA1890022C6
:203E0800ADF80A1005B101228DF80C20F96A35E1B86B002800F033816846002102220CF0FA
:203E2800DDF9A5788DF8015060788DF80000B96B23E1786B002800F02281684621460BF07E
:203E4800BDF8796B19E1386B08B36846002114220CF0C4F9A5788DF80150A3680193A289EE
:203E6800ADF80820A17B8DF80A1060788DF80000E57B8DF80B50237C8DF80C3094F91120F7
:203E88008DF80D2061690491396B684688476068002800F0F48011F0B7F9F0E0B86A0028C9
:203EA80000F0ED806846002124220CF097F96078A11C8DF800000DF1020011F08FFD04F160
:203EC8000C0103A811F08AFD257EE08A04F119018DF818500B22ADF816000DF119000AF098
:203EE800EDF8B96AC9E0786A002800F0C8806846002102220CF072F9A5788DF801506078A2
:203F08008DF80000796AB8E0386A002800F0B7806846002112220CF061F9658862796078AF
:203F2800ADF8025023798DF80520E11D8DF80000A5798DF804300B220DF107008DF80650D5
:203F48000AF0BCF8396A98E0F869002800F097806846002101220CF041F960788DF800007B
:203F6800F9698AE0B86910B120460EF04FFBA07820B9A069002800F0828002E0A0690028B6
:203F88007DD00FF0F3FA7AE07869002877D06846002113220CF022F96D46A01C016840689B
:203FA80029600B22686004F10A0102A80AF086F8796962E03869002861D020460AF0FEF9E4
:203FC8005DE0F86800285AD0684600210E220CF005F96078A11C8DF800000DF1020011F0D6
:203FE800FDFCA089ADF80C00F96846E0B868002845D06846002114220CF0F0F8A01C0168F4
:204008006D46296040686860A07A0B2204F10B018DF808000DF109000AF050F8B9682CE0A1
:20402800786860B36846002110220CF0D7F860786588211D8DF800000B22ADF8025001A864
:204048000AF03CF8796818E03868C0B16846002119220CF0C3F8A01C01686D462960406876
:204068006860A07A02A90FF044FE0B220DF10E0004F10B010AF022F839686846884712B03C
:20408800B0BDC046182900202DE9F04F064692F808B0307D09AF8946ADF11C0D0493352872
:2040A800039208D011464D6806F1700045600C8904810A680260DFF8E48239F07F0006D1C9
:2040C800D8F8000000F1D4021168C98C05E0D8F800004FF6FF7100F1D4020591F18A89099F
:2040E80034BF002108213176F18AC90834BF102180217176F18A49093ABF116891F83410D0
:204108000021B176F18A4B082CBF20240024090928BF44F010047568317D4FF0000A09F020
:204128007F096D1E02290EDB0D2908DA0C2904BF44F408544FF0020A44F0030404E00D290C
:204148000CBF022101210C43116891F8381001292BD196F88C1009B144F00804200904D364
:20416800002908BFDF2000F01581D8F800C0210960461AD3DCF8BC54049A039906F1240339
:204188003046A847051C07D0D8F804007570816DF3208847E8B2FEE0F08AC00828BF44F05C
:2041A80010047568404600686D1E336DBBB9B36DABB9D0F8D41091F85120012A03D1318996
:2041C800B1F5EE7F06DA210904D2022A0BD144F4005401E044F480544FF0010A03E044F4FE
:2041E80008544FF0020AD0F8AC100B786BB9D0F8B8100B784BB196F86B10042905D124F4B2
:2042080080544FF0020A44F4005444EA8934B9F1020FA4B20BD0B9F1030F16D1D0F8D410C5
:20422800ED1F2846443111F0EDFD6D1E0DE0D0F8D400408D001205F80109D8F80000D0F80A
:20424800D40090F82A0005F80109BAF1020F0AD0B9F1000F13D0BBF1000F07D004990598CB
:20426800814203D109E0307D0C2806D00599081205F8010905F8011901E044F0400444EAA2
:204288008B24BBF1020FA4B209D0BBF1030F0ED10399ED1F284611F0B5FD6D1E07E0039907
:2042A8000888001205F80109087805F80109BBF1000F05D00498011205F8011905F8010969
:2042C800387808BB377D0D2F16D040460068D0F8D4105FB9376D1FB9087D421C0A7510E00D
:2042E80091F83900421C81F839200AE091F82200421C81F8222004E0D8F80400D0F8A800EE
:20430800804705F8010901E044F48074201205F801092C70D8F8007070683389B837401BC7
:204328007560C1B258183081F86990F8380001282FD120092DD3B06D00B130623868007821
:2043480010B1307D0D2824D1706A10F1150406D1D7F89404804740460768706AB837816A1B
:204368004A1C8262306A3289B162441B0092121B019090B20290706A96F88C20D7F80844D1
:204388002B461530A04700281CBF7070051C7FF401AF0020707007B0BDE8F08F1401002041
:2043A8002DE9FE4F0090B74F01913868DFF8DCA2DFF8DC82B74D02924030D0F89410DFF8F5
:2043C800D89291F88320B0499B46012A00F084807A68D26801230024137056460C700368DC
:2043E80034701E6816B9D0F80C05804702984FF0E24616EA0B0604EA000008BF00284ED10E
:204408000299A24608201AEA0B0600EA010008BF00283DD0464696F90000401E3070B5F827
:20442800D60042F20146864202D0311D81420DD1484600680199826C0098904730B1008844
:20444800B5F8D61042F6014282420BD1B5F86600B0F5105F21D1A96F48460C3001600FF04B
:2044680045FD2EE0361D8E4214BFE1201C2007F053FD98F9000028B198F90000002800F354
:20448800FB80EAE03868D0F8582421462046EEE0464696F90000401E30701D200FE046467F
:2044A80096F900003D68401E3070286C006840680078800902D210F019FC02E0E92007F052
:2044C8002BFD98F90000002800F0CC8098F90000002800F3D180C0E07A68D2680123137057
:2044E80000240C7001680E6816B9D0F80C058047484600680199826C009890476749029A8D
:20450800DFF89C910B8814EA0B064FF0020606EA020108BF002931D121464FF0E2461140A2
:2045280016EA0B0608BF002919D14FF486012026114016EA0B0608BF00290AD1002874D0DF
:20454800008840F6030181426FD01D2007F0E4FC6BE0019900985B46FFF76AF865E0464634
:2045680096F900004D46401E30702878862802D010F0BCFB59E00FF0F9F856E0464696F9C2
:204588000010DFF820C15246491E317043F20841994214700AD0B5F87E2001F1020E9E45C4
:2045A80004D0914202D07146914212D178B1008843F6030181420AD007F038F996F90000CB
:2045C80000284FD096F90000002855DC45E0B5F87E20B5F8F61043F6040088422ED09042AA
:2045E8002CD098422AD0B5F84E20904226D0B1F5505F05D0080B16D31D2007F08DFC12E02B
:20460800294800684E4600F5C070CCF814003078862802D00FF06AFC05E001990098029AE8
:204628005B460EF0AFFA11F009FA464696F90000C0B196F9000000281EDC0EE01B48007820
:20464800022816D0032814D007F0F0F896F9000040B196F9000000280EDC3868D0F84C057A
:20466800804709E03868D0F8582420460146904702E0204607F050FC7868C0680470BDE86E
:20468800FE8FC04614010020842C0020832C00208C2C0020981B002008240020321C002046
:2046A8002F3D00200024002028010021352B00202DE9F0470646AF4DAF4C28684030D0F800
:2046C8009410277891F8838027B1D0F80C0580472868403001680B682BB9D0F80C0580472B
:2046E8002868006C0368A246A44C0127667003F1700093F878608AF80070BEB1A049022E34
:204708000CD091F90120032E06D10E4606F1100110F08AF950B906E0104608E00E46B11DD4
:2047280010F082F910B996F9010000E07E2011F06DF96078012840F2B280DFF848929249C7
:20474800801E56D0401E3ED0401E00F0C880401E20D0401E40F0BE802868006C006890F885
:204768006D20628190F86E00002806BFE770381CE0706A6852680978127811FB02F14843C2
:2047880081004846C16690F8701021F00F0141F003015AE0B8F1010F40F0B3802968403125
:2047A8000A6812680020D28A6071D20939BFD1F8941091F82510D1F8941091F84E10A17055
:2047C80011F000FC9DE00026B8F1010F66710DD12968D1F8D40090F85300D1F83C148847D2
:2047E800C07B022802D1304609F0B2F80FF01EF887E066482F680668D7F8D40090F8830083
:20480800012825D0884698F800008700F06B8047D8F804103C23401AB0FBF7F1B1FBF3F2AA
:204828005A43891A227812FB03F0401A3C301FFA80F8F06B804707FB08014846C16690F8D5
:20484800701021F00F0141F0020180F8701058E0884698F800008700F06B8047D8F8041060
:204868003C23401AB0FBF7F1B1FBF3F25A43891A227812FB03F0401A3C301FFA80F8F06BC7
:20488800804707FB08014846C0F8FC1090F8001121F00F0141F0020180F8001131E0002143
:2048A8002F68617107F140010A681268D28AD20939BFD1F8941091F82520D1F8941091F802
:2048C8004E20A270B0B9CF78A7B1022AC4BF0220A0700FE02868D0F84C05804711E0286887
:2048E800006C006890F86910617190F86A00A0700027A77101F0ACF92868006C00680028A6
:2049080036D02348007898B92868403001680F682FB9D0F80C0580472868006C07687A68A0
:204928006178107800F0200020719078E07100E06178032903D0022918BF062918D111F041
:20494800FBFC617802290CD01249097811B91249097831B102218AF8001052F061FCBDE81B
:20496800F08783218AF8001052F05AFC0BF0FAFABDE8F087140100202F3D0020342B00209F
:20498800481D0020981B0020BC2A002008240020463700202A3D00202C3D00202DE9F04F63
:2049A800B24C2168ADF1240DF4310A68059092F8440082281ABF92F84400401C002082F858
:2049C8004400086890F8441000EBE10090F82C104A1080F82C2048080AD22168F4310A6845
:2049E80092F84400401C82F84400C0B28128E8DB2268F432116844310878812880F22D8102
:204A0800D2F83C23E12090474FF6FF770220ADF8087025688DF81000F43528688778CFB931
:204A280011F01EFB4FF47A71B1FBF0F0904B914900220AF07DFA002800F015812068D0F854
:204A4800F4001A21417005982A2707702668D6F8401307E1022F00F0FC80052F22D0042F7C
:204A680020D0012F19BF07228321082280210023009349300190D5F884524FF6FF7310462E
:204A880002AAA847DB2808D0E52806D0F32804D0DF2818BFE82840F0E6802168D1F8F410EC
:204AA8004870D0E7D5F8402100F149010C209047071C00F0D8802068D0F8F42092F8436017
:204AC800002106B1012192F84260002006B1012092F8412040EA4100012A01B24FF000003D
:204AE80008BF012040EA410910200AF0DBF9624D0646287930700AF0D5F970604FF0000839
:204B080086F808803278C6F80C80706805F58C75294609F0D3FA5FEA060A00F088802068B2
:204B2800D0F8F40035787A68CDF81C9000F149018378069190F842B090F84390716808939B
:204B48000723561E06F801393889401C3881F82206F801292A4686F80080761B304609F0F1
:204B6800ADFA089B761EC5F3012040F0900006F80109042B06F8015921D0B9F1000F0EBFB0
:204B8800404606F801990120BBF1000F03D0401C06F801B980B20799401C1E2506F80119A3
:204BA80080B2831C06F8015999B206F80109C1F3012040F0880006F8010906F801193F2065
:204BC80006F8010986F8008078680C25801BC0B2388106997E600B22A7F8168007F1840095
:204BE8003D7509F06BFA2068032102AA4FF6FF73D0F87453CDF800803846A847061C08D152
:204C0800787E256840F020007876D5F8781238468847DAF80400374608B10EF0A7FCDAF8A8
:204C28000C0008B10EF0A2FC50460EF09FFCDB2F07D0E52F05D0F32F03D0DF2F18BFE82F21
:204C480011D12068D0F8F400477005982A210170FCE60598D5F8741304E005982A21017006
:204C6800D2F84C12884709B0BDE8F08F14010020982C00209DAB0000481D00202DE9F84F15
:204C88000AF0CAF8B24DB34C4FF000084FF0010A4FF0020B48E085F80080E36910F054FAB6
:204CA80020B9206A20F00200206203E0184611F0C5FC206A010927D3606911F0BBFC071CC0
:204CC80015D0616A69B1607858B1401E02D0401E0AD103E0B86810F02BFC616AB8688847D4
:204CE80002E0B86810F024FC38460EF03FFC606911F09CFC20B9E06911F0A0FC206A03E045
:204D0800206A20F008002062C1080DD320F004002062206911F08AFC30B9206A40F0100065
:204D28002062E06911F08AFCE0694FF0FF3153F015F910F075FDE7882689A4F80680A28834
:204D4800A4F80880216AA4F80480114347EA010246EA0201216210F055FF206A010A24BF72
:204D680020F08000206220780CF07AFEA16A002834D0074649B1A078401E04D0401E04D112
:204D8800384688472AE03846884738460CF00BFE071C23D00C200AF085F8061C1BD010F01E
:204DA8003FFDB7603B7881465BB92069314611F039FC206A40F010002062E06911F03EFC04
:204DC80005E030460EF0D2FB38460EF0CFFB484610F018FF02E038460EF0C8FB206A4109C5
:204DE8002CD3206911F022FCD8B911F051F9C0B910F016FD0646206911F01CFC071C0DD0AE
:204E0800B8684068A061B968486849880AF01EFDB8680EF0ABFB38460EF0A8FB304610F0B1
:204E2800F1FE206911F002FC20B9E06911F006FC206A03E0206A20F0100020628108FFF4B9
:204E480039AF66E09DF800006B78AE686F68A870D81C5FFA80F94946304610F04FFE9DF8F2
:204E68000010814205D13FB1484631464246B84702E0304610F0C8F985F8008049E0AF68AF
:204E8800E8789DF80010C019C170E878401CC3B2EB7010F059F96978C6B2C91AB1420CDB07
:204EA800D8193146C01C0FF019F9E87869788019C0B2E870814222D02BE0DB1989B2DB1C0B
:204EC80018460FF00BF96878E87018E09DF8000085F803809DF800706870F81C10F0E2F8D9
:204EE8000028A8603FF4D7AE6978017085F800A00FE09DF80000A9688870687808B9052000
:204F080006E0042004E09DF80000FE2801D10320287010F019F900283FF4BFAE6846514634
:204F28000FF0DCF828780028EDD0401E08D0401EDFD0401ECAD0401EA1D0401E82D0E8E788
:204F48009DF80000A968487085F800B0E1E7C0469C2C0020C41200202DE9F04FAD4E4FF083
:204F6800000A8146ADF1140D57467069CDF808A0CDF80CA010B1804700B90B27F078002F3B
:204F880040F0978096F8314096F832700146B9F1000FA1F101011FFA81F818BF01215546D9
:204FA8004FF0F80B86F83F1022E0AF421ED0F06869036A46042311F027F9009911F4403F20
:204FC8001CBF0AF101005FFA80FA01F0FF017C2918BF782909D1284606215A4610F0C4FA44
:204FE8000C2015FB006080F848B0F0786D1CEDB2A842DADC401E50455BD0B8F1000F06F1A0
:20500800300500F0CF8003984FF4005B019096F83F30F06813B9012186F83F106A46610326
:20502800042311F0F1F8B9F1000F05D00099F07811F4403F40F09B80009800F0FF007028DA
:2050480003D0204670210FF097F9F06879036A46042311F0D9F8009800F0FF00FE2803D0F2
:205068003846FE210FF088F938460621FE2210F07BFAB800FE2300EBC700FF2186F83C70FC
:20508800A200A6F840B0401986F83D4000F1180A8AF80030019B86F83E1002EBC40040194D
:2050A800A6F84430808BA6F8420000F097FC102801D10020AAE0B9F1000F0CBF1021494670
:2050C800B9F1000F07D0B6F84000C0F50050814207DC01200390B6F84000C0F50050814235
:2050E80001DD782100E07C2138460FF045F906F059F996F83F300446A8EB04000621FC228E
:205108001FFA80F8181B86F83F00384610F02CFAFC208AF80000029A96F83210F0780919CE
:2051280096F83E400C27891891FBF0F24243891AC9B286F83210491C91FBF0F24243891ABB
:2051480086F8311014FB0751898B102905D1611C91FBF0F24243891ACCB20198B9F1000F1B
:2051680096F83270029019D00398B8B11AE096F83F30641C94FBF0F1A8F101024143A6F8D3
:2051880040B01FFA82F8581E641A029986F83F00E4B286F83D40481C80B20290B8F1000FC7
:2051A8007FF435AF7C200EF0DDFD0446FF2C1CD17E200EF0D7FD0446FF2C16D196F83140EF
:2051C8000C2014FB0050807DFF280AD0F27896F832008018401E90FBF2F15143401AC4B24C
:2051E80003E020467E210FF0C7F80C2086F8334014FB0050808BF08696F83200FE210FF026
:20520800BBF8B6F84000C0F5005000B205B0BDE8F08FC046482500202DE9F04F1346587844
:20522800ADF11C0D1F7804909878FB2F059080F2328104984FF0010900F01E000A2880F2E9
:2052480026810498A14900F01F0051F82060002E069600F01C81049ADD1CADF80470059E97
:205268008DF8002028468DF8016032F07F04029000F00981002F4FF0040A00F0F780017820
:205288001B798DF8031021F007048DF80230083C00F0E580DFF83882083C4ED0083C07D060
:2052A800083C40F0D980032F08BF4FF0000ADDE0032F40F0DB80841C02944446257DADF856
:2052C80004900027012D30D1257F95422AD1627FB24227D1E27F514011F0070F22D1A17F7D
:2052E80099421DD18078A8B1401E12D0401E032818D9001F02D0401E14D008E0607D1B1AA5
:20530800B3F1FF3F06D007200DF0D8F8A2E008270EE0B9466846494608F01EFF074604E0B8
:20532800032705E007200DF0C9F8002F00F092803A466846202100278AE0042FC0F2968045
:205348008346A81C10F0E0FE4446054620783F1FFEB2002701282BD19DF80010227A9142FF
:2053680023D19DF80110627A91421ED19DF80210A27A914219DB9DF803C0E37A9C4512D1EA
:20538800A3899D420DD1914206D0A1788E420DD0A1888E4205D109E002202070A1788E425A
:2053A80004D0574602E0022700E00327216927B99DF80230042808D020E008460EF0D6F810
:2053C800504620709DF80230A372ABB969460EC904F1080080E80E00284609F063FD20611E
:2053E800002804BF2078062708D000206070A670A580A581207005E007B90327042823D04E
:2054080002281DD02169A0789DF80220884612FB00F080B2324640180BF1040108F04EFE02
:205428009DF80200A072A088801B86B2A68036B9CDF80880ADF804500627D14602E02078A7
:20544800042801D04E46267004F1080018213A460FF000FBBA4609E04FF0050A06E07F1EB3
:20546800401CADF804704FF0060A0290D146B9F1060F0CD10699684688478146029830B1BD
:205488000EF074F803E00699684688478146B9F1000F02D10FE04FF004090498059F8DF848
:2054A8000C90002103228DF80D0003AB8DF80E70602003F0ABFE07490888401C08800020BF
:2054C80002210AF0C5FE07B0BDE8F08F682A0020D43A0020802600202DE9F04F07469D4DD7
:2054E80097F860000024ADF11C0D00286FD02868D0F8141338468847002868D12868D0F8DE
:205508002033A0461E210DF10E02386F8DF80E80984700282ED006462868D0F814048047BB
:205528001421332310FB01F191FBF3F216F8011B204601F0010C4B0804D32B68D3F8D43050
:205548005B7813B9BCF1010F00D001208B0808D338B116F8013B97F846008342CCBF201CF4
:205568000120C90802D2012804D029E040B33078904225DB38460EF08FFF08B397F8300066
:2055880003281DD1744E3078D0B1102009F08AFC0446B078207009F085FC6060F07820721A
:2055A80009F080FCE0602278606806F11A0108F085FDE068227A06F19903194608F07EFDF7
:2055C8002868D0F81813386F884740463867A846D8F800002430D0F884100F78002F00F091
:2055E800A98001680F7D002F40F0A480002C00F0AD806268D0F8B060E768049294F808B0EE
:20560800257896F838200597012A0DD191F8287057B1D0F8E82091F82910D0F8EC0017F8DC
:2056280002A0465C761D02E04FF0000A564670199D305844801D86B206EB0A0000F1020906
:205648001FFA89F00FF02EFD071C73D04A4600210AF0C4FD07F13C00FF2110220AF0BEFD79
:2056680007F12C000F2110220AF0B8FDB8197860A7F808A005997868A0EB0B007860388950
:20568800584438817868A7F84C605A4608F016FDD8F80000D0F8046307F12C01012200236D
:2056A8003846B047002842D17868401B0499786038894019388178682A4608F0FFFC78688C
:2056C800C5F30121401E786041F0900101707868401E78600570D8F800603889801C3881AE
:2056E800D6F8FC2207F13C0138469047F8B90025D8F80010FD8207F184000B223D75496AE9
:205708008DF80C50203108F0D9FCD8F80000D0F874632B46032101AA38460093B04730B9E2
:20572800D8F80000D0F878123846884702E038460FF06AFD54B1606808B10DF017FFE0684B
:2057480008B10DF013FF20460DF010FF07B0BDE8F08FC04614010020481D00202DE9FE4F09
:205768008B46054610F0E8FD944C012D029000F0E08020460068D0F838038047002800F080
:20578800D3800CF06FFC002800F0CE8021464968DFF840A28969DAF808000F783C30002F22
:2057A80040F0C280864C0068257880476168E268AF00401AB0FBF7F6A06890460027B94619
:2057C800114646454B4673EB090301DA884206D839464A4686428A4140DA024600E03946FE
:2057E8001046EB172A46801BB94110F093F90646794800680F46C18A006940186430804688
:205808004FF00001B6EB080677EB09077042B94124DA10F025FC02464B46394630460BF08B
:2058280005FA0F4606464FF000017042B94115DA0FF0F6FF0546206910F054FB10B1206984
:2058480010F066FD284610F0DDF92069314610F05BFD206910F05AFD002000E0012059499E
:205868000870884698F8000000285DD153480068D0F894000078002739460BF057FD00B177
:205888000127381C4DD14D480068D0F8D4004B4E90F88370706880690078002841D1DAF874
:2058A8000800494C436C606902216A4698479DF80000002835D0BBF1010F4FF0010921D061
:2058C800424EDAF80820606996F9001011F1020F06D0926B96F900109047DAF808206069AF
:2058E8003B4D95F9001011F1020F06D0926B95F900109047DAF8082060696FF00101297062
:20590800317002E0DAF8082060692C494968896981F80090D1698847012F04BF00208AF87A
:205928000000002088F80000029851F079FCBDE8FE8F2068D0F89400007801210BF0F6FCD2
:20594800029851F06DFC606880690078012819D10FF0EAFC60B1606880690178012911D193
:205968000021BBF1010F01700CD010F08BF809E010F0E2FC6168896902220A7051F050FCC5
:205988000AF070FA0FF0D0FCB0B960680C30C1680978022909D101680F7837B12068D0F88C
:2059A8004C058047241D20680C3001680F781FB9C16808780228FCD0BDE8FE8F14010020F4
:2059C800BC2A00202D3D0020A4270020802C0020812C002000240020B82700202DE9F04F13
:2059E800994E96F83D0096F83F10F37896F83C800027ADF12C0D0918491E91FBF3F296F8D6
:205A08003D4077705A43891AC9B20891810001EBC0018919B1F84C0096F83C10ADF81C0066
:205A2800880000EBC1008019B0F84C50CDF8248006A80EF051F870780A97A04500F0A18070
:205A4800B946CB46BBF1010F00F09080BDF81C10162966DD002840F09580BDF81C0001AA26
:205A6800C01F81B2ADF81C10204608F053F9BDF81210BDF81C30884608F1070008F11002E0
:205A880087B29A4246D89DF80E00962842D19DF80F00420839D2800837D3BDF81C000023D8
:205AA8000093A0EB08001FFA80FA9DF80D20BDF81C002346401A80B20EF02AFBF8B9E819C8
:205AC800B0F5005F15DCF068C5F188520AEB443A3B46D21B514602F5005210F095FBED198A
:205AE80009F10109ADB2B5F5005F08BF4FF0010B0BE0BDF81C004FF0010BC01D2EE0BDF879
:205B08001C00401EADF81C0004E0BDF81C00A0EB080023E0204607A90BF0A4FB01281FD02F
:205B280030E0F278B9F1000F07D0484BBDF81C70A10001EBC401C9188F830899A14220D0C6
:205B48004249641C94FBF2F05043241AE4B2A00000EBC4004018808B4FF00009ADF81C009F
:205B680009997078A1427FF46DAF0AE0B9F1000F07D0364ABDF81C70A10001EBC4018918F3
:205B88008F8320B106980FF0B1FE102059E0DDF824804FF6F0704FF40051C5EA0040C5EA15
:205BA8000141E1FA40F01FFAA0F283B2102102F1885240460DF0C6F87178084370700698BF
:205BC8000FF094FEA0450FD1F278204F1019401E90FBF2F15143401AC4B2A00000EBC400E6
:205BE800C019808BADF81C00184FBDF81C00A6F840504FEA8801A6F8440001EBC80186F8BB
:205C08003E40C9198D83B6F9422096F83D10012340460EF0F3FF96F83E10B6F94420022372
:205C280040460EF0EBFFBDF81C001628DCBF01200A90B5F5005F03DB0A9840F002000A9034
:205C48000A980BB0BDE8F08F48250020782500202DE9F84F8C4E4FF000088C4C30688DF8FE
:205C68000080D0F8D400A57890F883B010F0E5FA4FF0010A4FF6FF710AFA05F2891801406D
:205C880030686181D0F8B800824D077847B3826B32B342F21A00694690477D4867790378F4
:205CA800C3B1BFB99DF80030A3B13068D0F8B800C06D78B180472978071C0AD07068406884
:205CC80063890078083010FB01F0B7FBF0F15818608167799DF80010608907FB01006081EE
:205CE8006078002840F0B3806B483768016807F1D4000268DFF8A49192F88320012A33D0E1
:205D0800D0F888018047A1782A78002800F09B803368A9F8E280D3F8D43093F8314089F88B
:205D2800E44093F8243089F8E53099F8E63043F0200389F8E63099F8E6305043800023F061
:205D48001F0343F0020389F8E63099F8E630C9F8F00068F3871389F8E63089F8E78089F8FD
:205D6800E81089F8E98074E0C86B804704460BF039F807462878810007FB01434C4604F13A
:205D8800A40210784FF0020C6CF3030010707068C4F8A030406894F80021007868F303020D
:205DA800083080B201FB003194F8883084F80021604660F3030384F888303068C4F8841048
:205DC800D430016891F8831001293CD1D0F888018047C0B36868D4F88410884233D294F8E5
:205DE800A400042368F3030084F8A4002A787568C4F8A08012FB03F001B2686894F8883030
:205E08000078083080B2414323F00F0040F0030084F888004FF4FA55C4F8841094F88C00C1
:205E2800A4F89A8040F0080084F88C0094F88C00C4F894506AF3041084F88C0007FB02F03F
:205E48000EF0DCFD05E01C2006F066F801E002F065FEBBF1020F14D13068006C006880B179
:205E68000F481149007848B90E48007830B98322084602700AF076F8BDE8F88F02220846CE
:205E88000270BDE8F88FC04614010020342B002046370020BC2A002008240020981B0020E0
:205EA8002A3D00202C3D00202F3D00202DE9F0430546854A69780026ADF11C0D0846312866
:205EC8000FDC312800F0B480002800F0F680401E00F0EC80401E00F0E5802E3800F0C180C0
:205EE800DEE07B4C323800F08C80401E41D0401E012817D9801E40F0D380A88802280ED16F
:205F080014462068002808BF182109D0A86810F0FBF8216888470FF0CCFF014600E0272102
:205F28003620BAE020680F4600B3A86802A90FF0C6FA342F034608BF9B1C13F8012B352F9A
:205F480003D1A988901D884208D0342F04D1A98802F10800884201D0272108E0246802A880
:205F680003C8A0470FF0A5FF014600E01821384693E0A888082836D114461034206880B3B3
:205F8800A86802A90FF09BFA024610F0BDF895788146F82DC8BFF825A81C5FFA80F84046F5
:205FA80008F080FF071C1AD0B81C0090246802AB93E803004A462B46A047041C07D13C70AE
:205FC800414633203A467D7010F0E6F802E00FF070FF044638460DF0C9FA2CB970E01A2449
:205FE80002E0182400E0272406A8314602220AF0F5F88DF81840332006AA022110F0CCF859
:206008005EE0A888314605280BD1241D206840B1A86804A90FF053FA226804A803C89047EF
:20602800014602A80DF048FE3220042102AAE5E7A888052812D114460C342068002808BFE4
:2060480018210CD0A86802A90FF039FA226802A803C890470FF02DFF014600E02721312075
:206068001BE0A888092816D11446241D2068002808BF182110D0A86802A90FF020FA0FF0D7
:20608800D7FD2468024602A803C83346A0470FF010FF014600E0272130200FF0C7FE0FE0FB
:2060A80026260DE0094A02200521A7E702A8432110F024F802AA01209FE701200DF0D0FC0F
:2060C800304607B0BDE8F083540F0020982300006C0F00202DE9F04F694A794E1068ADF1B5
:2060E8001C0D01A90190096806F1100004462160516801AA01911268011D0A606149082225
:206108000EF042FF28B960490A6820460260496841605E485F4F4767604BC3675E4D8567B4
:206128005B4901675F4FC0F884705F4BC0F888300024C0F89840C0F89C40594AC0F8944060
:2061480000F180052A605A4F5A4B584AC0F89070016FC0F88C20594FC0F8A030564AAF62DA
:20616800C0F8A42009B12046884709F0FBFC5548554FF0604FF0020A87F801A04FF0010B75
:2061880087F802B0514B7B625148B8620CF09AF80423514A4F4913703878087048704F4FB1
:2061A8004F491375642207F10C000CF07FFEA146DFF83081B8606F688DF8089077B102A867
:2061C8004146009004AB891D0A6889881A6004AA998092E803005B464A46B8472A684746BB
:2061E8004AB1B91D04A80B688988036004AD818095E80300904739680DF1090001603D796B
:20620800057139480068400805D341208021062202AB02F0FBFF354D05F1140005F10801A9
:2062280007F0A0F8686048460FF080FFAF1E804607F8029F204687F801A00FF0F9FF0146FC
:2062480068684246C9B20DF065FC641C022CEFDB274905F1200032220CF028FE70684FF07A
:20626800FF3151F07BFE0028F8D030780BF0F8FB041CF3D0FDF770FD20460EF0C5FFEDE766
:20628800C84F00501C240000F0120050E00E002019D6000069260100D9F8000095E2000028
:2062A8008DF30000EDFF0000C1D20000AD040100B51E0100DD5801002D090100990F01003B
:2062C8000C29002084260020C4120020ED330100E55D0100642A0020D43A002074290020A4
:2062E800A92A010098230000D42C002060270020E1E700002DE9F04F7A4CA068416EADF108
:206308002C0D02A88847DFF8E0A1DFF8E0B19AF9000038B1594691F90000002818BF00203F
:2063280040F0DC8010F008F8DFF8C4910A9099F80000800806D27D20002105F0A9F8002599
:20634800079001E00025079502958DF80C50059503208DF81800DFF89C81C8F87C51A8F809
:20636800765198F88F7198F88011634B012665F3030166F3000788F8801198F8801188F85A
:206388008F7166F3C71188F8801198F88F1166F3410188F88F1198F88F1165F3820188F83D
:2063A8008F1198F88F1165F3C30188F88F1198F88F1165F3041188F88F1198F88F1160F389
:2063C800461188F88F111868D0F8282408F5C871F4209047494807789FB94846A76800780C
:2063E80080090FD3F86B8047C8F87C0198F8801121F00F0141F0020188F880118DF80C604B
:206408000290A7683F4A3E484FF080738DE80C003F6D3D4B006808F5BA79494602AAB8470B
:206428000028608006D5022041F288310AF0E2FF2E464FE0594691F90000344F401C087065
:2064480097F90000401C38709AF90000C4F80C902946401C8AF8000002200AF0CBFF264F0D
:2064680026483968057001F1AC021068077807B18025B4F84C0017684FF67F7303401D434B
:206488002843A4F84C0098F88C21387860F3C71288F88C21D1F8D400C28CA4F85A20428D8B
:2064A80000F14403A4F858201A6804F14F052A6058686860D1F8D400C18CA8F8A611418D9C
:2064C80000F14407A8F8A4113A6808F5CE742260786860600A9850F0A3FE30460BB0BDE8C7
:2064E800F08FC046002400208E2C00208D2C00202B3D0020981B002014010020852C0020B7
:20650800B827002020004300393600008C2C00202DE9F04F814DA868416EADF12C0D02A867
:206528008847A8467E4C7F4DA178606902290FD170B1002006F010FED8F808004168606984
:206548008847281D0068806901210170002060614FF0010A002684F802A00028059630D108
:206568000AF0D4FBD8B10AF0D1FB012817D00AF0CDFB052813D00AF0C9FB0C280FD00AF04E
:20658800C5FB0D280BD00AF0C1FB0B2807D00AF0BDFB0E2803D02868D0F84C058047D8F868
:2065A800080000F1200130B92868D0F84C058047D8F808102031096804F120008847514839
:2065C800E0630EF087FC2968D1F8D40090F85300D1F83C14884707462868D0F8D40090F9FC
:2065E80042000BF021F9B0F1FF3F05D0010828BF4FF6FF704449088038897968DFF80C91B9
:206608003B6832464FF47A7BA9F81661401EC9F81821414303EB5100B0FBFBF0A9F8340180
:2066280099F821016AF3030089F8210199F820016AF3C71089F820012868D0F8C40380472E
:20664800F8B9B88932496F68BBFBF0F0C0B208707968BBFBF0F008702868D0F8D40090F8CB
:206668005300022806D00CF079FE032809D105215C2001E00221A820264A117069680968A6
:2066880008706769D8F80860A168DFF88CB03FB3002006F061FD2A68D8F808106069D2F8E3
:2066A800D420637892F853200F4693420AD0496888476868806980F800A0D8F80800A168D0
:2066C80006680EE0022100228DE806003F6D09F58A76002302AA3146B847C8F80C6008E093
:2066E800366809F58A7904F1200358464A46B04760612868D0F8D40090F853000BB0607063
:20670800BDE8F08F54F10080C61C0020981B0020BC2A0020342B0020483200200024002050
:20672800A4270020140100202DE9F04F744C734FE06807F5A271ADF12C0D814207D17148D8
:2067480090F90000002818BF002040F0D4800FF0F3FD0025DFF8D8810A90D8F80000A7F8B8
:206768004651D0F8B8000078002807BF4FF4860AAB4670A090E8000CA068416E02A888470C
:206788000320614E8DF8180030780595800807D27D20294604F07CFE8DF81850079000E001
:2067A8000795C7F84C51594B97F85001584AC7F8643165F3030087F85001E3685069B44636
:2067C80007F1340607F134019E420CD0B7F84420B0F840309A4206D1B7F84220C38F9A4279
:2067E80008BF524914D0514EFD864A4BBE6301221A7097F8412022F00F0242F0020287F8FE
:206808004120FD6397F8402065F3030287F84020DFF8049199F800700E4617BBD8F8001011
:20682800D1F8B8100F781FB99CF80010890918D33A490F7837F07F0713D139490F7887B95B
:20684800A068C06B8047B060307B012720F00F0040F002003073B0688DF80C702C4B02903D
:206868005869A1680F6D2F4B02AA8DE8000C3146B8470028608009D50A9850F0D1FC0220F6
:2068880041F288310AF0B6FD284634E01D49264F91F90000254E401C087097F90000E66053
:2068A8002946401C387002200AF0A4FDD8F80000AC3001680F7889F8005007B18025B4F82A
:2068C8004C10806A4FF67F720A4015432943A4F84C10C18CA4F85A10418D00F14407A4F835
:2068E8005810396804F14F063160786870600A9850F096FC01200BB0BDE8F08F981B0020B5
:20690800002400208D2C00202B3D002000C42264A4270020842C0020852C00202F3D002068
